:100000000C9457000C9474000C9474000C947400BD
:100010000C9474000C9474000C9474000C94740090
:100020000C9474000C9474000C9474000C944505AA
:100030000C9474000C948E050C9474000C94740051
:100040000C9474000C9474000C9474000C94740060
:100050000C94740008000000BE922449123EABAA22
:10006000AA2ABECDCCCC4C3E00000080BEABAAAAD2
:10007000AA3E00000000BF000000803F000000001A
:1000800000084178D3BB4387D1133D190E3CC3BD53
:100090004282AD2B3E68EC8276BED98FE1A93E4C00
:1000A00080EFFFBE01C4FF7F3F000000000011246D
:1000B0001FBECFE5D8E0DEBFCDBF10E0A0E6B0E0C8
:1000C000E6E9F1E102C005900D92AC38B107D9F72D
:1000D00020E0ACE8B0E001C01D92A639B207E1F71C
:1000E0000E9425030C94C9080C940000CF93DF9361
:1000F000C82F40E063E080E00E94C5048FE99FE0E4
:100100000197F1F700C0000041E062E080E00E944A
:10011000C5048FE99FE00197F1F700C00000DC2FD4
:10012000D295DF704D2F417060E081E00E94C504E0
:10013000D1FB442740F961E081E00E94C504D2FB75
:10014000442740F962E081E00E94C5044C2F441F1F
:100150004427441F64E081E00E94C5048FE99FE0CA
:100160000197F1F700C0000040E062E080E00E94EB
:10017000C5048FE99FE00197F1F700C0000041E05E
:1001800062E080E00E94C5048FE99FE00197F1F7EB
:1001900000C00000DC2FDF704C2F417060E081E078
:1001A0000E94C504D1FB442740F961E081E00E9430
:1001B000C504D2FB442740F962E081E00E94C504F7
:1001C0004D2F46954695469564E081E00E94C50412
:1001D0008FE99FE00197F1F700C0000040E062E086
:1001E00080E00E94C5048FE99FE00197F1F700C00D
:1001F0000000DF91CF91089542E063E080E00E942B
:10020000EF0342E062E080E00E94EF0342E060E042
:1002100081E00E94EF0342E061E081E00E94EF0391
:1002200042E062E081E00E94EF0342E064E081E0AE
:100230000E94EF0382E00E94760088E20E9476002E
:100240008EE00E94760081E00E9476000895CF93B0
:10025000DF93C82F41E063E080E00E94C5048FE98E
:100260009FE00197F1F700C0000041E062E080E00C
:100270000E94C5048FE99FE00197F1F700C00000DC
:10028000DC2FD295DF704D2F417060E081E00E943D
:10029000C504D1FB442740F961E081E00E94C50418
:1002A000D2FB442740F962E081E00E94C5044C2F54
:1002B000441F4427441F64E081E00E94C5048FE985
:1002C0009FE00197F1F700C0000040E062E080E0AD
:1002D0000E94C5048FE99FE00197F1F700C000007C
:1002E00041E062E080E00E94C5048FE99FE0019751
:1002F000F1F700C00000DC2FDF704C2F417060E090
:1003000081E00E94C504D1FB442740F961E081E00F
:100310000E94C504D2FB442740F962E081E00E94BC
:10032000C5044D2F46954695469564E081E00E94B0
:10033000C5048FE99FE00197F1F700C0000040E09D
:1003400062E080E00E94C5048FE99FE00197F1F729
:1003500000C0000080918C008F5F80938C008431FE
:1003600059F480918D008F5F80938D0010928C00E6
:10037000843111F410928D00DF91CF9108950F9385
:100380001F93CF938C01C0E003C00E942701CF5F71
:10039000F801EC0FF11D80818111F7CFCF911F91F2
:1003A0000F910895813061F028F0823089F0833018
:1003B000B9F01DC060938C0010928D00962F17C06D
:1003C00090E4960F60938C0081E080938D000FC0C5
:1003D00094E1960F60938C0082E080938D0007C0BB
:1003E00094E5960F60938C0083E080938D00892FB5
:1003F00080680E947600089510928C0010928D0003
:1004000081E00E94760008958F929F92AF92BF92F2
:10041000CF92DF92EF92FF9281E00E94E503BC0150
:1004200080E090E00E9427079B01AC0160E070EC47
:100430008FE794E40E94860620E030E040E85FE326
:100440000E94190620E030E44CE156E40E940508C1
:100450000E94BD076B017C0126ED34E649E759E3B4
:100460000E9405082BEC38E444E85AE30E941A067F
:100470004B015C012CE63FEC48E554E3C701B601B3
:100480000E9405089B01AC01C701B6010E94050846
:100490009B01AC01C701B6010E9405089B01AC019C
:1004A000C501B4010E941A069B01AC0160E070E036
:1004B00080E89FE30E94860623E333E948E853E49B
:1004C0000E9419060E94F806862FFF90EF90DF9099
:1004D000CF90BF90AF909F908F90089580918E00A5
:1004E00090918F00A0919000B09191009F5FAF4FCD
:1004F000BF4F80938E0090938F00A0939000B09395
:10050000910008958F929F92AF92BF92CF92DF9207
:10051000EF92FF920F931F93CF93DF9300D000D001
:1005200000D0CDB7DEB76B017C01FE01319686E0CD
:10053000DF011D928A95E9F700E010E060E070E0CD
:10054000CB0135C0DC01CB01880F991FAA1FBB1F4F
:100550004C015D01880C991CAA1CBB1C880C991CC1
:10056000AA1CBB1C880E991EAA1EBB1E01110FC01F
:10057000C701B6012AE030E040E050E00E94A70841
:10058000672B682B692B11F41F5F01C001E0C701C5
:10059000B6012AE030E040E050E00E94A708680D74
:1005A000791D8A1D9B1DC22ED32EE42EF52EC1145B
:1005B000D104E104F10431F600E013C02AE030E098
:1005C00040E050E00E94A708E1E0F0E0EC0FFD1FE2
:1005D000E00FF11D605D6083622F732F842F952FD4
:1005E0000F5F611571058105910541F70AC0E1E0D2
:1005F000F0E0EC0FFD1FE00FF11D80E380830F5F43
:1006000011501111F4CFE1E0F0E0EC0FFD1FE00F0D
:10061000F11D1082CE0101960E94BF018CE690E090
:100620000E94BF0126960FB6F894DEBF0FBECDBF65
:10063000DF91CF911F910F91FF90EF90DF90CF90BE
:10064000BF90AF909F908F9008950E94FC000E94F1
:10065000B7050E9484030E9470058EE692E00E9416
:1006600040050E9487050E940402C82F6AE080E0CE
:100670000E94D2016C2F70E080E090E00E94820224
:10068000C43620F482E790E00E94BF0184E790E046
:100690000E9405060E9483052FE78AE196E021501B
:1006A00080409040E1F700C000002FE78AE196E02B
:1006B000215080409040E1F700C000002FE78AE120
:1006C00096E0215080409040E1F700C000000E9479
:1006D000FC0122B780918E0090918F00A091900034
:1006E000B0919100BC01CD01620F711D811D911D62
:1006F0000E948202FFCF877097B1907E892B87B9C5
:1007000086B1806486B9089527B1E0E6F0E0918172
:1007100030E4939FC0011124922F9F73892B87B9D6
:100720008281811104C087B18F7D87B905C0813076
:1007300019F487B1806287B986B1806886B98091E3
:1007400060008823C9F0813039F486B1806286B9AF
:1007500080B78F7080BF10C0823071F486B1806224
:1007600086B920B79091640030E2939FC0011124B4
:10077000922F9F70892B80BF96B180916300987FE4
:100780008770892B86B986B1877F86B90895809155
:100790006200811108C024B185B1837090E0982F68
:1007A0008827822B0895813069F424B122952695FB
:1007B0002695237085B190E0880F991F880F991FA7
:1007C000822B089580E090E008950E947B03349B83
:1007D000FECF0E94C70326B1206126B90895843058
:1007E00008F0D2C0683008F0CFC08130D1F138F0C5
:1007F000823009F468C0833009F496C0089541112D
:1008000010C02AB381E090E002C0880F991F6A955A
:10081000E2F78095922F98239ABB9BB389238BBBD9
:100820000895413081F42AB381E090E002C0880F3E
:10083000991F6A95E2F7982F909592239ABB9BB3E4
:10084000892B8BBB0895423009F09EC02AB381E00A
:1008500090E002C0880F991F6A95E2F7822B8ABB4D
:100860000895411110C027B381E090E002C0880FC5
:10087000991F6A95E2F78095922F982397BB98B3BA
:10088000892388BB0895413081F427B381E090E04B
:1008900002C0880F991F6A95E2F7982F90959223CE
:1008A00097BB98B3892B88BB0895423009F06CC080
:1008B00027B381E090E002C0880F991F6A95E2F7A4
:1008C000822B87BB0895411110C024B381E090E0D2
:1008D00002C0880F991F6A95E2F78095922F98239E
:1008E00094BB95B3892385BB0895413081F424B32B
:1008F00081E090E002C0880F991F6A95E2F7982F77
:100900009095922394BB95B3892B85BB0895423073
:10091000D9F524B381E090E002C0880F991F6A9551
:10092000E2F7822B84BB0895411110C021B381E00E
:1009300090E002C0880F991F6A95E2F78095922F88
:10094000982391BB92B3892382BB0895413081F4EF
:1009500021B381E090E002C0880F991F6A95E2F709
:10096000982F9095922391BB92B3892B82BB0895C7
:10097000423051F421B381E090E002C0880F991F0A
:100980006A95E2F7822B81BB0895843008F077C026
:10099000683008F074C0813011F130F08230D1F14C
:1009A000833009F452C00895413059F42BB381E0EB
:1009B00090E002C0880F991F6A95E2F7822B8BBBEB
:1009C000089541115CC02BB381E090E002C0880F14
:1009D000991F6A95E2F7809582238BBB0895413079
:1009E00059F428B381E090E002C0880F991F6A95FE
:1009F000E2F7822B88BB0895411141C028B381E002
:100A000090E002C0880F991F6A95E2F780958223D3
:100A100088BB0895413059F425B381E090E002C0CD
:100A2000880F991F6A95E2F7822B85BB08954111C3
:100A300026C025B381E090E002C0880F991F6A9517
:100A4000E2F78095822385BB0895413059F422B3A3
:100A500081E090E002C0880F991F6A95E2F7822B2F
:100A600082BB089541110BC022B381E090E002C027
:100A7000880F991F6A95E2F78095822382BB0895BB
:100A8000909393008093920008951F920F920FB657
:100A90000F9211242F933F934F935F936F937F9304
:100AA0008F939F93AF93BF93EF93FF93E091920047
:100AB000F0919300309709F00995FF91EF91BF9164
:100AC000AF919F918F917F916F915F914F913F91E6
:100AD0002F910F900FBE0F901F90189582BF089511
:100AE00083B7806883BF83B78F7B83BF83B7877FDC
:100AF00083BF8FB780688FBF89B7816089BF80E06F
:100B00000E946E05089583B7887F83BF089583B7D9
:100B100090916500887F892B83BF08951F920F9263
:100B20000FB60F9211242F933F934F935F936F93C0
:100B30007F938F939F93AF93BF93EF93FF93E09136
:100B40009400F0919500309709F00995FF91EF918D
:100B5000BF91AF919F918F917F916F915F914F91D5
:100B60003F912F910F900FBE0F901F90189580917D
:100B70006900811104C08AB188608AB90EC08130D1
:100B800021F48AB180618AB908C0823031F48AB117
:100B900080618AB98AB188608AB9E6E6F0E041816D
:100BA00080E1489FA00111249281292F30E0220F7B
:100BB000331F220F331F220F331F9081892F90E0A4
:100BC000880F991F4068242B822B80BD2AB1908109
:100BD0009470892F90E0880F991F880F991F922F8A
:100BE0009B7F892B8AB9858180BD848189B90895CD
:100BF0005D9BFECF90FF04C02AB121602AB903C0DB
:100C00002AB12E7F2AB98CB908950F931F93CF93E1
:100C10008C01C0E004C090E00E94F805CF5FF801AD
:100C2000EC0FF11D80818111F6CFCF911F910F91B3
:100C300008955058BB27AA270E9431060C947B07C1
:100C40000E946D0738F00E94740720F039F49F3F2E
:100C500019F426F40C946A070EF4E095E7FB0C9463
:100C60006407E92F0E948C0758F3BA1762077307CD
:100C70008407950720F079F4A6F50C94AE070EF4DE
:100C8000E0950B2EBA2FA02D0B01B90190010C019C
:100C9000CA01A0011124FF27591B99F0593F50F4B4
:100CA000503E68F11A16F040A22F232F342F44270C
:100CB000585FF3CF469537952795A795F040539504
:100CC000C9F77EF41F16BA0B620B730B840BBAF0D4
:100CD0009150A1F0FF0FBB1F661F771F881FC2F73F
:100CE0000EC0BA0F621F731F841F48F48795779553
:100CF0006795B795F7959E3F08F0B0CF9395880F0D
:100D000008F09927EE0F9795879508950E949A0607
:100D10000C947B070E94740758F00E946D0740F006
:100D200029F45F3F29F00C94640751110C94AF072C
:100D30000C946A070E948C0768F39923B1F355233A
:100D400091F3951B550BBB27AA27621773078407DE
:100D500038F09F5F5F4F220F331F441FAA1FA9F374
:100D600035D00E2E3AF0E0E832D091505040E69562
:100D7000001CCAF72BD0FE2F29D0660F771F881FC3
:100D8000BB1F261737074807AB07B0E809F0BB0BB6
:100D9000802DBF01FF2793585F4F3AF09E3F5105CA
:100DA00078F00C9464070C94AF075F3FE4F3983E2F
:100DB000D4F3869577956795B795F7959F5FC9F7B3
:100DC000880F911D9695879597F90895E1E0660F34
:100DD000771F881FBB1F621773078407BA0720F0AD
:100DE000621B730B840BBA0BEE1F88F7E095089516
:100DF0000E94940788F09F5798F0B92F9927B75110
:100E0000B0F0E1F0660F771F881F991F1AF0BA95AE
:100E1000C9F714C0B13091F00E94AE07B1E0089557
:100E20000C94AE07672F782F8827B85F39F0B93F49
:100E3000CCF3869577956795B395D9F73EF4909561
:100E40008095709561957F4F8F4F9F4F0895E894DF
:100E500009C097FB3EF490958095709561957F4F02
:100E60008F4F9F4F9923A9F0F92F96E9BB279395B0
:100E7000F695879577956795B795F111F8CFFAF4C0
:100E8000BB0F11F460FF1BC06F5F7F4F8F4F9F4FF1
:100E900016C0882311F096E911C0772321F09EE84F
:100EA000872F762F05C0662371F096E8862F70E0B5
:100EB00060E02AF09A95660F771F881FDAF7880F8F
:100EC0009695879597F9089597F99F6780E870E060
:100ED00060E008959FEF80EC089500240A941616B0
:100EE000170618060906089500240A941216130618
:100EF000140605060895092E0394000C11F48823A6
:100F000052F0BB0F40F4BF2B11F460FF04C06F5FC1
:100F10007F4F8F4F9F4F089557FD9058440F551F97
:100F200059F05F3F71F04795880F97FB991F61F06B
:100F30009F3F79F087950895121613061406551FE2
:100F4000F2CF4695F1DF08C0161617061806991F4E
:100F5000F1CF86957105610508940895E894BB2743
:100F600066277727CB0197F9089516F00C9472083D
:100F70000C946A0768940C9464070E949407A8F381
:100F80009923C1F3AEF3DF93CF931F930F93FF9297
:100F9000C92FDD2788232AF02197660F771F881F26
:100FA000DAF720E030E040E85FEB9FE3883920F09B
:100FB000803E38F021968F770E941A06E4E5F0E033
:100FC00004C00E941A06E1E8F0E00E9480088B014C
:100FD000BE01EC01FB2E6F5771097595771F880BC9
:100FE000990B0E94290728E132E741E35FE30E9461
:100FF0001808AF2D9801AE01FF900F911F91CF916E
:10100000DF910E9431060C947B070E9418080C9413
:101010007B070E946D0738F00E94740720F095232B
:1010200011F00C9464070C946A0711240C94AF0718
:101030000E948C0770F3959FC1F3950F50E0551FE8
:10104000629FF001729FBB27F00DB11D639FAA271D
:10105000F00DB11DAA1F649F6627B00DA11D661F6C
:10106000829F2227B00DA11D621F739FB00DA11D8D
:10107000621F839FA00D611D221F749F3327A00D47
:10108000611D231F849F600D211D822F762F6A2FE3
:1010900011249F5750409AF0F1F088234AF0EE0F48
:1010A000FF1FBB1F661F771F881F91505040A9F775
:1010B0009E3F510580F00C9464070C94AF075F3F8E
:1010C000E4F3983ED4F3869577956795B795F795B1
:1010D000E7959F5FC1F7FE2B880F911D9695879529
:1010E00097F908959F3F31F0915020F487957795B7
:1010F0006795B795880F911D9695879597F90895EF
:10110000DF93CF931F930F93FF92EF92DF927B01B8
:101110008C01689406C0DA2EEF010E941808FE01C7
:10112000E894A5912591359145915591A6F3EF014C
:101130000E943106FE019701A801DA9469F7DF9059
:10114000EF90FF900F911F91CF91DF910895A1E251
:101150001A2EAA1BBB1BFD010DC0AA1FBB1FEE1F31
:10116000FF1FA217B307E407F50720F0A21BB30B7C
:10117000E40BF50B661F771F881F991F1A9469F7F8
:1011800060957095809590959B01AC01BD01CF0154
:061190000895F894FFCF62
:1011960000010006000203000002330020546963C8
:1011A6006B002000414443204661696C65642075EC
:0C11B6007064617465206C63640D0000BF
:00000001FF
