S0280000436174636853776974636848617A6172644E6F726D616C5F4558455F74696D652E7372656395
S11300000C9457000C9474000C9474000C947400B9
S11300100C9474000C9474000C9474000C9474008C
S11300200C9474000C9474000C9474000C94A30548
S11300300C9474000C94EC050C9474000C947400EF
S11300400C9474000C9474000C9474000C9474005C
S11300500C94740008000000BE922449123EABAA1E
S1130060AA2ABECDCCCC4C3E00000080BEABAAAACE
S1130070AA3E00000000BF000000803F0000000016
S113008000084178D3BB4387D1133D190E3CC3BD4F
S11300904282AD2B3E68EC8276BED98FE1A93E4CFC
S11300A080EFFFBE01C4FF7F3F0000000000112469
S11300B01FBECFE5D8E0DEBFCDBF10E0A0E6B0E0C4
S11300C0EAE7F2E102C005900D92A43AB107D9F72C
S11300D020E0A4EAB0E001C01D92AE3AB207E1F715
S11300E00E945F030C943B090C940000CF93DF93B0
S11300F0C82F40E063E080E00E9423058FE99FE081
S11301000197F1F700C0000041E062E080E00E9446
S113011023058FE99FE00197F1F700C00000DC2F71
S1130120D295DF704D2F417060E081E00E9423057D
S1130130D1FB442740F961E081E00E942305D2FB12
S1130140442740F962E081E00E9423054C2F441FBC
S11301504427441F64E081E00E9423058FE99FE067
S11301600197F1F700C0000040E062E080E00E94E7
S113017023058FE99FE00197F1F700C0000041E0FB
S113018062E080E00E9423058FE99FE00197F1F788
S113019000C00000DC2FDF704C2F417060E081E074
S11301A00E942305D1FB442740F961E081E00E94CD
S11301B02305D2FB442740F962E081E00E94230535
S11301C04D2F46954695469564E081E00E942305AF
S11301D08FE99FE00197F1F700C0000040E062E082
S11301E080E00E9423058FE99FE00197F1F700C0AA
S11301F00000DF91CF91089542E063E080E00E9427
S11302004D0442E062E080E00E944D0442E060E080
S113021081E00E944D0442E061E081E00E944D04CF
S113022042E062E081E00E944D0442E064E081E04B
S11302300E944D0482E00E94760088E20E947600CB
S11302408EE00E94760081E00E9476000895CF93AC
S1130250DF93C82F41E063E080E00E9423058FE92B
S11302609FE00197F1F700C0000041E062E080E008
S11302700E9423058FE99FE00197F1F700C0000079
S1130280DC2FD295DF704D2F417060E081E00E9439
S11302902305D1FB442740F961E081E00E94230556
S11302A0D2FB442740F962E081E00E9423054C2FF1
S11302B0441F4427441F64E081E00E9423058FE922
S11302C09FE00197F1F700C0000040E062E080E0A9
S11302D00E9423058FE99FE00197F1F700C0000019
S11302E041E062E080E00E9423058FE99FE00197EE
S11302F0F1F700C00000DC2FDF704C2F417060E08C
S113030081E00E942305D1FB442740F961E081E0AC
S11303100E942305D2FB442740F962E081E00E9459
S113032023054D2F46954695469564E081E00E944D
S113033023058FE99FE00197F1F700C0000040E03A
S113034062E080E00E9423058FE99FE00197F1F7C6
S113035000C000008091A4008F5F8093A4008431CA
S113036059F48091A5008F5F8093A5001092A4009A
S1130370843111F41092A500DF91CF9108950F9369
S11303801F93CF938C01C0E003C00E942701CF5F6D
S1130390F801EC0FF11D80818111F7CFCF911F91EE
S11303A00F910895813061F028F0823089F0833014
S11303B0B9F01DC06093A4001092A500962F17C039
S11303C090E4960F6093A40081E08093A5000FC091
S11303D094E1960F6093A40082E08093A50007C087
S11303E094E5960F6093A40083E08093A500892F81
S11303F080680E9476000895CF93DF93EC01862FE6
S1130400642F0E94D201CE010E94BF01DF91CF91DF
S113041008951092A4001092A50081E00E94760035
S11304200895CF93DF93CDB7DEB761970FB6F894F5
S1130430DEBF0FBECDBFDC01CB014AE0BE016F5F62
S11304407F4F0E940609CE0101960E94BF0161966A
S11304500FB6F894DEBF0FBECDBFDF91CF910895E4
S113046042E00E944D040895411103C00E942305F7
S11304700895413011F40E94230508958F929F92AC
S1130480AF92BF92CF92DF92EF92FF9281E00E94EF
S11304904304BC0180E090E00E9464079B01AC012E
S11304A060E070EC8FE794E40E94C30620E030E043
S11304B040E85FE30E94560620E030E44CE156E455
S11304C00E9442080E94FA076B017C0126ED34E683
S11304D049E759E30E9442082BEC38E444E85AE324
S11304E00E9457064B015C012CE63FEC48E554E3BF
S11304F0C701B6010E9442089B01AC01C701B601C5
S11305000E9442089B01AC01C701B6010E94420847
S11305109B01AC01C501B4010E9457069B01AC01CB
S113052060E070E080E89FE30E94C30623E333E9C0
S113053048E853E40E9456060E943507862FFF9030
S1130540EF90DF90CF90BF90AF909F908F900895E1
S11305508091A6009091A700A091A800B091A90055
S11305609F5FAF4FBF4F8093A6009093A700A093C7
S1130570A800B093A90008958F929F92AF92BF9262
S1130580CF92DF92EF92FF920F931F93CF93DF935B
S113059000D000D000D0CDB7DEB76B017C01FE01E6
S11305A0319686E0DF011D928A95E9F700E010E0BC
S11305B060E070E0CB0135C0DC01CB01880F991FEE
S11305C0AA1FBB1F4C015D01880C991CAA1CBB1CF3
S11305D0880C991CAA1CBB1C880E991EAA1EBB1E43
S11305E001110FC0C701B6012AE030E040E050E03D
S11305F00E94E408672B682B692B11F41F5F01C06C
S113060001E0C701B6012AE030E040E050E00E947A
S1130610E408680D791D8A1D9B1DC22ED32EE42E7D
S1130620F52EC114D104E104F10431F600E013C045
S11306302AE030E040E050E00E94E408E1E0F0E02D
S1130640EC0FFD1FE00FF11D605D6083622F732FBF
S1130650842F952F0F5F611571058105910541F771
S11306600AC0E1E0F0E0EC0FFD1FE00FF11D80E3B4
S113067080830F5F11501111F4CFE1E0F0E0EC0F33
S1130680FD1FE00FF11D1082CE0101960E94BF01F3
S11306908CE690E00E94BF0126960FB6F894DEBF68
S11306A00FBECDBFDF91CF911F910F91FF90EF90BF
S11306B0DF90CF90BF90AF909F908F9008950E944D
S11306C0FC000E9415060E94E20360E082E00E94A2
S11306D0300240E060E082E00E9434020E94CE05D5
S11306E088EA92E00E949E050E94E5050E940902A4
S11306F040E060E082E790E00E94FC010E943E023C
S1130700C82F6AE080E00E94D2016C2F70E080E084
S113071090E00E94110240E061E081E890E00E94D4
S1130720FC0160E181E00E94D20162E370E080E0BC
S113073090E00E94110240E062E086E990E00E94AD
S1130740FC016DE082E00E94D20185E40E94270151
S11307500E94E1052FE78AE196E021508040904015
S1130760E1F700C000002FE78AE196E021508040C5
S11307709040E1F700C000002FE78AE196E02150A5
S113078080409040E1F700C000000E94090222B7B7
S11307908091A6009091A700A091A800B091A90013
S11307A0BC01CD01620F711D811D911D0E94BC020F
S11307B0FFCF877097B1907E892B87B986B180640B
S11307C086B9089527B1E0E6F0E0918130E4939F83
S11307D0C0011124922F9F73892B87B982818111C3
S11307E004C087B18F7D87B905C0813019F487B102
S11307F0806287B986B1806886B980916000882359
S1130800C9F0813039F486B1806286B980B78F70BF
S113081080BF10C0823071F486B1806286B920B77F
S11308209091640030E2939FC0011124922F9F7035
S1130830892B80BF96B180916300987F8770892B44
S113084086B986B1877F86B9089580916200811147
S113085008C024B185B1837090E0982F8827822B3B
S11308600895813069F424B1229526952695237044
S113087085B190E0880F991F880F991F822B0895E6
S113088080E090E008950E94D903349BFECF0E943B
S1130890250426B1206126B90895843008F0D2C019
S11308A0683008F0CFC08130D1F138F0823009F4DB
S11308B068C0833009F496C00895411110C02AB36A
S11308C081E090E002C0880F991F6A95E2F7809555
S11308D0922F98239ABB9BB389238BBB08954130F5
S11308E081F42AB381E090E002C0880F991F6A95D1
S11308F0E2F7982F909592239ABB9BB3892B8BBBDD
S11309000895423009F09EC02AB381E090E002C00D
S1130910880F991F6A95E2F7822B8ABB08954111CB
S113092010C027B381E090E002C0880F991F6A9538
S1130930E2F78095922F982397BB98B3892388BBBD
S11309400895413081F427B381E090E002C0880F1C
S1130950991F6A95E2F7982F9095922397BB98B3C5
S1130960892B88BB0895423009F06CC027B381E01D
S113097090E002C0880F991F6A95E2F7822B87BB2B
S11309800895411110C024B381E090E002C0880FA3
S1130990991F6A95E2F78095922F982394BB95B39B
S11309A0892385BB0895413081F424B381E090E02C
S11309B002C0880F991F6A95E2F7982F90959223A9
S11309C094BB95B3892B85BB08954230D9F524B3E4
S11309D081E090E002C0880F991F6A95E2F7822BAC
S11309E084BB0895411110C021B381E090E002C09E
S11309F0880F991F6A95E2F78095922F982391BBEF
S1130A0092B3892382BB0895413081F421B381E0FC
S1130A1090E002C0880F991F6A95E2F7982F90958D
S1130A20922391BB92B3892B82BB0895423051F437
S1130A3021B381E090E002C0880F991F6A95E2F724
S1130A40822B81BB0895843008F077C0683008F0A9
S1130A5074C0813011F130F08230D1F1833009F467
S1130A6052C00895413059F42BB381E090E002C0A4
S1130A70880F991F6A95E2F7822B8BBB0895411169
S1130A805CC02BB381E090E002C0880F991F6A9587
S1130A90E2F7809582238BBB0895413059F428B343
S1130AA081E090E002C0880F991F6A95E2F7822BDB
S1130AB088BB0895411141C028B381E090E002C091
S1130AC0880F991F6A95E2F78095822388BB089561
S1130AD0413059F425B381E090E002C0880F991F9A
S1130AE06A95E2F7822B85BB0895411126C025B390
S1130AF081E090E002C0880F991F6A95E2F7809523
S1130B00822385BB0895413059F422B381E090E0FB
S1130B1002C0880F991F6A95E2F7822B82BB089561
S1130B2041110BC022B381E090E002C0880F991FED
S1130B306A95E2F78095822382BB08959093AB0077
S1130B408093AA0008951F920F920FB60F9211245A
S1130B502F933F934F935F936F937F938F939F93C1
S1130B60AF93BF93EF93FF93E091AA00F091AB0092
S1130B70309709F00995FF91EF91BF91AF919F9143
S1130B808F917F916F915F914F913F912F910F9032
S1130B900FBE0F901F90189582BF089583B7806889
S1130BA083BF83B78F7B83BF83B7877F83BF8FB7B1
S1130BB080688FBF89B7816089BF80E00E94CC05BF
S1130BC0089583B7887F83BF089583B790916500A4
S1130BD0887F892B83BF08951F920F920FB60F92BF
S1130BE011242F933F934F935F936F937F938F932E
S1130BF09F93AF93BF93EF93FF93E091AC00F09179
S1130C00AD00309709F00995FF91EF91BF91AF9135
S1130C109F918F917F916F915F914F913F912F9110
S1130C200F900FBE0F901F9018958091690081114D
S1130C3004C08AB188608AB90EC0813021F48AB1B7
S1130C4080618AB908C0823031F48AB180618AB97E
S1130C508AB188608AB9E6E6F0E0418180E1489F84
S1130C60A00111249281292F30E0220F331F220F7B
S1130C70331F220F331F9081892F90E0880F991F13
S1130C804068242B822B80BD2AB190819470892FD7
S1130C9090E0880F991F880F991F922F9B7F892BB3
S1130CA08AB9858180BD848189B908955058BB274C
S1130CB0AA270E946E060C94B8070E94AA0738F06F
S1130CC00E94B10720F039F49F3F19F426F40C94E4
S1130CD0A7070EF4E095E7FB0C94A107E92F0E9407
S1130CE0C90758F3BA17620773078407950720F0FA
S1130CF079F4A6F50C94EB070EF4E0950B2EBA2FBD
S1130D00A02D0B01B90190010C01CA01A00111240D
S1130D10FF27591B99F0593F50F4503E68F11A16B9
S1130D20F040A22F232F342F4427585FF3CF46954A
S1130D3037952795A795F0405395C9F77EF41F166C
S1130D40BA0B620B730B840BBAF09150A1F0FF0F36
S1130D50BB1F661F771F881FC2F70EC0BA0F621F22
S1130D60731F841F48F4879577956795B795F79512
S1130D709E3F08F0B0CF9395880F08F09927EE0FA7
S1130D809795879508950E94D7060C94B8070E94FA
S1130D90B10758F00E94AA0740F029F45F3F29F0F8
S1130DA00C94A10751110C94EC070C94A7070E9412
S1130DB0C90768F39923B1F3552391F3951B550B98
S1130DC0BB27AA2762177307840738F09F5F5F4F1A
S1130DD0220F331F441FAA1FA9F335D00E2E3AF059
S1130DE0E0E832D091505040E695001CCAF72BD071
S1130DF0FE2F29D0660F771F881FBB1F26173707C2
S1130E004807AB07B0E809F0BB0B802DBF01FF27F3
S1130E1093585F4F3AF09E3F510578F00C94A10728
S1130E200C94EC075F3FE4F3983ED4F386957795F2
S1130E306795B795F7959F5FC9F7880F911D9695AC
S1130E40879597F90895E1E0660F771F881FBB1F08
S1130E50621773078407BA0720F0621B730B840BB5
S1130E60BA0BEE1F88F7E09508950E94D10788F029
S1130E709F5798F0B92F9927B751B0F0E1F0660F5A
S1130E80771F881F991F1AF0BA95C9F714C0B1309B
S1130E9091F00E94EB07B1E008950C94EB07672FE3
S1130EA0782F8827B85F39F0B93FCCF386957795CA
S1130EB06795B395D9F73EF49095809570956195B3
S1130EC07F4F8F4F9F4F0895E89409C097FB3EF4DE
S1130ED090958095709561957F4F8F4F9F4F992383
S1130EE0A9F0F92F96E9BB279395F6958795779501
S1130EF06795B795F111F8CFFAF4BB0F11F460FFC1
S1130F001BC06F5F7F4F8F4F9F4F16C0882311F018
S1130F1096E911C0772321F09EE8872F762F05C02C
S1130F20662371F096E8862F70E060E02AF09A95C7
S1130F30660F771F881FDAF7880F9695879597F9BC
S1130F40089597F99F6780E870E060E008959FEF47
S1130F5080EC089500240A9416161706180609064C
S1130F60089500240A94121613061406050608951B
S1130F70092E0394000C11F4882352F0BB0F40F4A3
S1130F80BF2B11F460FF04C06F5F7F4F8F4F9F4FE3
S1130F90089557FD9058440F551F59F05F3F71F065
S1130FA04795880F97FB991F61F09F3F79F08795CC
S1130FB00895121613061406551FF2CF4695F1DF55
S1130FC008C0161617061806991FF1CF86957105E5
S1130FD0610508940895E894BB2766277727CB0119
S1130FE097F9089516F00C94AF080C94A707689429
S1130FF00C94A1070E94D107A8F39923C1F3AEF37F
S1131000DF93CF931F930F93FF92C92FDD2788237C
S11310102AF02197660F771F881FDAF720E030E067
S113102040E85FEB9FE3883920F0803E38F021965A
S11310308F770E945706E4E5F0E004C00E9457064B
S1131040E1E8F0E00E94BD088B01BE01EC01FB2E3B
S11310506F5771097595771F880B990B0E94660766
S113106028E132E741E35FE30E945508AF2D980180
S1131070AE01FF900F911F91CF91DF910E946E06F8
S11310800C94B8070E9455080C94B8070E94AA074C
S113109038F00E94B10720F0952311F00C94A107B9
S11310A00C94A70711240C94EC070E94C90770F351
S11310B0959FC1F3950F50E0551F629FF001729FF9
S11310C0BB27F00DB11D639FAA27F00DB11DAA1F08
S11310D0649F6627B00DA11D661F829F2227B00D55
S11310E0A11D621F739FB00DA11D621F839FA00DE0
S11310F0611D221F749F3327A00D611D231F849F30
S1131100600D211D822F762F6A2F11249F57504086
S11311109AF0F1F088234AF0EE0FFF1FBB1F661F01
S1131120771F881F91505040A9F79E3F510580F0CA
S11311300C94A1070C94EC075F3FE4F3983ED4F3BE
S1131140869577956795B795F795E7959F5FC1F76E
S1131150FE2B880F911D9695879597F908959F3FCB
S113116031F0915020F4879577956795B795880F5E
S1131170911D9695879597F90895DF93CF931F93C3
S11311800F93FF92EF92DF927B018C01689406C06B
S1131190DA2EEF010E945508FE01E894A5912591ED
S11311A0359145915591A6F3EF010E946E06FE011B
S11311B09701A801DA9469F7DF90EF90FF900F91FF
S11311C01F91CF91DF910895A1E21A2EAA1BBB1B98
S11311D0FD010DC0AA1FBB1FEE1FFF1FA217B307FF
S11311E0E407F50720F0A21BB30BE40BF50B661F15
S11311F0771F881F991F1A9469F7609570958095D9
S113120090959B01AC01BD01CF010895BB274A30E5
S113121031F4992322F4BDE2909581959F4F0C946B
S11312201209BB27FB015527AA27880F991FAA1F5C
S1131230A41710F0A41B83955051B9F7A05DAA33ED
S113124008F0A95DA193009779F7B111B1931192B8
S1131250CB010C942B09DC01FC01672F71917723DE
S1131260E1F7329704C07C916D9370836291AE175D
S10D1270BF07C8F30895F894FFCFF8
S113127A00010006000203000002330020546963DF
S113128A6B004375722054656D703A202020204308
S113129A005468726573686F6C642054656D703AA3
S11312AA202020204300416C61726D2053746174C4
S10712BA653A20006D
S9030000FC
