S02100004361746368554152545F4C697374656E5F4558455F74696D652E73726563C7
S11300000C942A000C9447000C9447000C9447006D
S11300100C9447000C9447000C9447000C94470040
S11300200C9447000C9447000C9447000C9469040A
S11300300C9447000C94B2040C9447000C944700B1
S11300400C9447000C9447000C9447000C94470010
S11300500C94470011241FBECFE5D8E0DEBFCDBF0E
S113006010E0A0E6B0E0E2E9FAE002C005900D92EB
S1130070A237B107D9F720E0A2E7B0E001C01D9292
S1130080AC37B207E1F70E9472020C9447050C9456
S11300900000CF93DF93C82F40E063E080E00E942C
S11300A0E9038FE99FE00197F1F700C0000041E008
S11300B062E080E00E94E9038FE99FE00197F1F795
S11300C000C00000DC2FD295DF704D2F417060E03E
S11300D081E00E94E903D1FB442740F961E081E01B
S11300E00E94E903D2FB442740F962E081E00E94C8
S11300F0E9034C2F441F4427441F64E081E00E941D
S1130100E9038FE99FE00197F1F700C0000040E0A8
S113011062E080E00E94E9038FE99FE00197F1F734
S113012000C0000041E062E080E00E94E9038FE942
S11301309FE00197F1F700C00000DC2FDF704C2F27
S1130140417060E081E00E94E903D1FB442740F95B
S113015061E081E00E94E903D2FB442740F962E0B8
S113016081E00E94E9034D2F46954695469564E04B
S113017081E00E94E9038FE99FE00197F1F700C055
S1130180000040E062E080E00E94E9038FE99FE024
S11301900197F1F700C00000DF91CF91089542E08C
S11301A063E080E00E94130342E062E080E00E948A
S11301B0130342E060E081E00E94130342E061E047
S11301C081E00E94130342E062E081E00E94130395
S11301D042E064E081E00E94130382E00E9449004F
S11301E088E20E9449008EE00E94490081E00E945A
S11301F049000895CF93DF93C82F41E063E080E086
S11302000E94E9038FE99FE00197F1F700C0000025
S113021041E062E080E00E94E9038FE99FE00197FA
S1130220F1F700C00000DC2FD295DF704D2F417034
S113023060E081E00E94E903D1FB442740F961E0DA
S113024081E00E94E903D2FB442740F962E081E0A7
S11302500E94E9034C2F441F4427441F64E081E0BB
S11302600E94E9038FE99FE00197F1F700C00000C5
S113027040E062E080E00E94E9038FE99FE001979B
S1130280F1F700C0000041E062E080E00E94E90371
S11302908FE99FE00197F1F700C00000DC2FDF70C9
S11302A04C2F417060E081E00E94E903D1FB4427B8
S11302B040F961E081E00E94E903D2FB442740F960
S11302C062E081E00E94E9034D2F469546954695EC
S11302D064E081E00E94E9038FE99FE00197F1F770
S11302E000C0000040E062E080E00E94E9038FE982
S11302F09FE00197F1F700C00000809172008F5FCA
S113030080937200843159F4809173008F5F8093DD
S1130310730010927200843111F410927300DF9113
S1130320CF9108950F931F93CF938C01C0E003C026
S11303300E94FA00CF5FF801EC0FF11D808181115A
S1130340F7CFCF911F910F910895109272001092E0
S1130350730081E00E944900089542E00E94130363
S11303600895411103C00E94E9030895413011F436
S11303700E94E90308958091740090917500A09102
S11303807600B09177009F5FAF4FBF4F80937400AA
S113039090937500A0937600B093770008958F92A0
S11303A09F92AF92BF92CF92DF92EF92FF920F9300
S11303B01F93CF93DF9300D000D000D0CDB7DEB72A
S11303C06B017C01FE01319686E0DF011D928A9566
S11303D0E9F700E010E060E070E0CB0135C0DC013B
S11303E0CB01880F991FAA1FBB1F4C015D01880C0C
S11303F0991CAA1CBB1C880C991CAA1CBB1C880E2B
S1130400991EAA1EBB1E01110FC0C701B6012AE026
S113041030E040E050E00E942505672B682B692BF3
S113042011F41F5F01C001E0C701B6012AE030E00A
S113043040E050E00E942505680D791D8A1D9B1D32
S1130440C22ED32EE42EF52EC114D104E104F104FE
S113045031F600E013C02AE030E040E050E00E94B2
S11304602505E1E0F0E0EC0FFD1FE00FF11D605DFC
S11304706083622F732F842F952F0F5F6115710591
S11304808105910541F70AC0E1E0F0E0EC0FFD1FA2
S1130490E00FF11D80E380830F5F11501111F4CF41
S11304A0E1E0F0E0EC0FFD1FE00FF11D1082CE0142
S11304B001960E9492018CE690E00E949201269699
S11304C00FB6F894DEBF0FBECDBFDF91CF911F9161
S11304D00F91FF90EF90DF90CF90BF90AF909F90DF
S11304E08F900895CF93DF931F92CDB7DEB70E940C
S11304F0CF000E94DB040E94D00260E082E00E94F0
S1130500AD0140E060E082E00E94B1010E949404E9
S11305108BEB91E00E9464040E94AB04198209C031
S11305208981873431F441E060E082E00E94B101C6
S113053006C0CE0101960E941C05882389F30E94FF
S1130540A7042FE78AE196E0215080409040E1F72C
S113055000C000002FE78AE196E0215080409040DF
S1130560E1F700C000002FE78AE196E021508040C7
S11305709040E1F700C000000E94A50122B78091DD
S1130580740090917500A0917600B0917700BC0141
S1130590CD01620F711D811D911D0E94CF01FFCFFE
S11305A027B1E0E6F0E0918130E4939FC00111248B
S11305B0922F9F73892B87B98281811104C087B1DF
S11305C08F7D87B905C0813019F487B1806287B9FE
S11305D086B1806886B9809160008823C9F0813033
S11305E039F486B1806286B980B78F7080BF10C03D
S11305F0823071F486B1806286B920B7909164002C
S113060030E2939FC0011124922F9F70892B80BFE9
S113061096B180916300987F8770892B86B986B1E3
S1130620877F86B90895843008F0D2C0683008F016
S1130630CFC08130D1F138F0823009F468C0833002
S113064009F496C00895411110C02AB381E090E0E6
S113065002C0880F991F6A95E2F78095922F98231C
S11306609ABB9BB389238BBB0895413081F42AB391
S113067081E090E002C0880F991F6A95E2F7982FF5
S1130680909592239ABB9BB3892B8BBB08954230E0
S113069009F09EC02AB381E090E002C0880F991F40
S11306A06A95E2F7822B8ABB0895411110C027B3E3
S11306B081E090E002C0880F991F6A95E2F7809567
S11306C0922F982397BB98B3892388BB0895413010
S11306D081F427B381E090E002C0880F991F6A95E6
S11306E0E2F7982F9095922397BB98B3892B88BBF8
S11306F00895423009F06CC027B381E090E002C055
S1130700880F991F6A95E2F7822B87BB08954111E0
S113071010C024B381E090E002C0880F991F6A954D
S1130720E2F78095922F982394BB95B3892385BBD8
S11307300895413081F424B381E090E002C0880F31
S1130740991F6A95E2F7982F9095922394BB95B3DD
S1130750892B85BB08954230D9F524B381E090E01C
S113076002C0880F991F6A95E2F7822B84BB089513
S1130770411110C021B381E090E002C0880F991F9D
S11307806A95E2F78095922F982391BB92B38923BF
S113079082BB0895413081F421B381E090E002C02E
S11307A0880F991F6A95E2F7982F9095922391BB31
S11307B092B3892B82BB0895423051F421B381E076
S11307C090E002C0880F991F6A95E2F7822B81BBE3
S11307D00895843008F077C0683008F074C0813020
S11307E011F130F08230D1F1833009F452C0089510
S11307F0413059F42BB381E090E002C0880F991F77
S11308006A95E2F7822B8BBB089541115CC02BB330
S113081081E090E002C0880F991F6A95E2F7809505
S113082082238BBB0895413059F428B381E090E0D2
S113083002C0880F991F6A95E2F7822B88BB08953E
S1130840411141C028B381E090E002C0880F991F94
S11308506A95E2F78095822388BB0895413059F464
S113086025B381E090E002C0880F991F6A95E2F7F2
S1130870822B85BB0895411126C025B381E090E009
S113088002C0880F991F6A95E2F78095822385BB81
S11308900895413059F422B381E090E002C0880FFA
S11308A0991F6A95E2F7822B82BB089541110BC010
S11308B022B381E090E002C0880F991F6A95E2F7A5
S11308C08095822382BB0895909379008093780069
S11308D008951F920F920FB60F9211242F933F93F6
S11308E04F935F936F937F938F939F93AF93BF9334
S11308F0EF93FF93E0917800F0917900309709F03D
S11309000995FF91EF91BF91AF919F918F917F9145
S11309106F915F914F913F912F910F900FBE0F9068
S11309201F90189582BF089583B7806883BF83B7EB
S11309308F7B83BF83B7877F83BF8FB780688FBF69
S113094089B7816089BF80E00E949204089583B7CB
S1130950887F83BF089583B790916500887F892B32
S113096083BF08951F920F920FB60F9211242F93F5
S11309703F934F935F936F937F938F939F93AF9323
S1130980BF93EF93FF93E0917A00F0917B0030974F
S113099009F00995FF91EF91BF91AF919F918F91CC
S11309A07F916F915F914F913F912F910F900FBE67
S11309B00F901F90189580916900811104C08AB12D
S11309C088608AB90EC0813021F48AB180618AB905
S11309D008C0823031F48AB180618AB98AB18860F2
S11309E08AB9E6E6F0E0418180E1489FA001112444
S11309F09281292F30E0220F331F220F331F220F41
S1130A00331F9081892F90E0880F991F4068242B11
S1130A10822B80BD2AB190819470892F90E0880F39
S1130A20991F880F991F922F9B7F892B8AB98581E3
S1130A3080BD848189B908955F9B05C02CB1FC01F8
S1130A40208381E0089580E00895A1E21A2EAA1B74
S1130A50BB1BFD010DC0AA1FBB1FEE1FFF1FA2176A
S1130A60B307E407F50720F0A21BB30BE40BF50B67
S1130A70661F771F881F991F1A9469F760957095F0
S1130A80809590959B01AC01BD01CF010895F89428
S1050A90FFCF92
S1130A9200010006000203000002330020546963CF
S1050AA26B00E3
S9030000FC
