:100000000C9457000C9474000C9474000C947400BD
:100010000C9474000C9474000C9474000C949A0367
:100020000C9474000C9474000C9474000C94740080
:100030000C9474000C94B4120C9474000C9474001E
:100040000C9474000C9474000C9474000C94740060
:100050000C94740008000000BE922449123EABAA22
:10006000AA2ABECDCCCC4C3E00000080BEABAAAAD2
:10007000AA3E00000000BF000000803F000000001A
:1000800000084178D3BB4387D1133D190E3CC3BD53
:100090004282AD2B3E68EC8276BED98FE1A93E4C00
:1000A00080EFFFBE01C4FF7F3F000000000011246D
:1000B0001FBECFE5D8E0DEBFCDBF11E0A0E6B0E0C7
:1000C000ECE2FCE202C005900D92A23DB107D9F727
:1000D00026E0A2EDB1E001C01D92AE3CB207E1F70F
:1000E0000E942D100C9414160C940000411106C0AF
:1000F00068237923672B49F480E0089586239723AA
:100100006817790721F080E0089581E0089581E083
:100110000895CF93DF938BE090E00E948101EC0182
:10012000009731F0FC0111921192CF010E94B701AA
:10013000CE01DF91CF910895AF92BF92CF92DF921F
:10014000EF92FF920F931F93CF93DF937C015B019C
:10015000C42ED22E0E942A08F701C081D1814D2DD4
:10016000B501CE010E947600882369F0CC2009F108
:10017000C501809590958C239D23F7019183808301
:1001800000E010E018C001151105A9F0C11003C06E
:1001900060E070E002C060E071E0D11074606A2934
:1001A0007B29A801C70102960E942F0AC0E0D0E077
:1001B00002C000E010E00E94EC08012B19F181114F
:1001C00002C00E94E5020E94B80BEC0191FD19C02B
:1001D0000FB6F8940F92F701C081D1814D2DB50172
:1001E000CE010E947600882351F0CC2041F0B50169
:1001F000609570956C237D23F701718360830F9068
:100200000FBEDD27CE01DF91CF911F910F91FF909F
:10021000EF90DF90CF90BF90AF900895FC010FB6A4
:10022000F8940F928081918160957095682379236D
:10023000718360830F900FBE0895CF92DF92EF928B
:10024000FF920F931F93CF93DF937C018B01EC01FF
:1002500025960E942A08D7011796ED91FC911897D0
:100260008D919C911197082B192B0D931C9300E0F5
:1002700010E02DC0C280D380808191819C01332702
:1002800092FD09C0D7014D915C9142235323452B28
:1002900061F440E00DC0D7014D915C91422353239E
:1002A0002417350721F040E003C041E001C041E0E0
:1002B000442359F090FF02C0022B132BD7016D91FC
:1002C0007C917260CF010E949B0AEC2DFD2DEC17F2
:1002D000FD0781F600951095F70180819181082333
:1002E0001923118300830E94EC08D7018D919C9102
:1002F000DF91CF911F910F91FF90EF90DF90CF9002
:100300000895CF93DF93EC010E942A088091D201D7
:100310009091D301892B31F487ED91E09093D30133
:100320008093D2012091D4013091D501C9018C0F65
:100330009D1F8D3744E0940770F42817390770F437
:10034000C091D201D091D301C20FD31F9093D50198
:100350008093D40105C0C0E0D0E002C0C0E0D0E08E
:100360000E94EC08CE01DF91CF9108950895FC0121
:100370000396928381832FEF3FEF34832383968309
:1003800085839087878310820895FC0111861086EB
:100390000895CF93DF939C01FB01DC011196CD9171
:1003A000DC911297D383C2838C819D819583848352
:1003B0008C819D81DC0113967C936E9312977D83D3
:1003C0006C8331872087F90180818F5F8083DF9183
:1003D000CF910895CF93DF93EB01488159814F3F2F
:1003E0002FEF520721F4FC01A781B0850DC0DC017D
:1003F000139601C0DF011296ED91FC9113972081B5
:10040000318142175307B0F71296ED91FC91139783
:10041000FB83EA83D583C483BD83AC831396DC93CB
:10042000CE93129799878887FC0120812F5F2083C4
:10043000DF91CF910895CF93DF93FC01A085B18523
:10044000C281D381848195819D838C83C481D58130
:10045000828193819B838A8311968D919C911297BF
:10046000E817F90731F48481958112969C938E9355
:100470001197118610868C9181508C93DF91CF91CA
:1004800008951BBC8CE78ABD8BE08EBD89B7806167
:1004900089BF089531E1FC013083319722E2208346
:1004A0003197A3E3A08331976083319770833197AD
:1004B0001082319760E8608331971082319762E053
:1004C0006083319763E06083319764E060833197A4
:1004D00065E06083319766E06083319767E0608311
:1004E000319768E06083319769E06083319760E11C
:1004F000608331973083319732E13083319733E134
:100500003083319734E13083319735E1308331974F
:1005100036E13083319737E13083319738E13083EA
:10052000319739E13083319730E23083319731E2CE
:10053000308331972083319723E2208331974083A2
:1005400031975083319726E22083319727E2208329
:10055000319728E22083319729E22083319720E3E5
:100560002083319721E32083869708950E944102DA
:10057000A091BD06B091BE06CD91CDBFDD91DEBF8D
:10058000FF91EF91DF91CF91BF91AF919F918F91AB
:100590007F916F915F914F913F912F911F910F919B
:1005A000FF90EF90DF90CF90BF90AF909F908F9093
:1005B0007F906F905F904F903F902F901F900F9083
:1005C0000FBE0F90089581E008950F920FB6F89432
:1005D0000F921F9211242F923F924F925F926F922F
:1005E0007F928F929F92AF92BF92CF92DF92EF92C3
:1005F000FF920F931F932F933F934F935F936F93AC
:100600007F938F939F93AF93BF93CF93DF93EF939A
:10061000FF93A091BD06B091BE060DB60D920EB629
:100620000D920E94B609A091BD06B091BE06CD9173
:10063000CDBFDD91DEBFFF91EF91DF91CF91BF91F3
:10064000AF919F918F917F916F915F914F913F916A
:100650002F911F910F91FF90EF90DF90CF90BF905F
:10066000AF909F908F907F906F905F904F903F9052
:100670002F901F900F900FBE0F9008950F920FB6FE
:10068000F8940F921F9211242F923F924F925F92F3
:100690006F927F928F929F92AF92BF92CF92DF9292
:1006A000EF92FF920F931F932F933F934F935F937C
:1006B0006F937F938F939F93AF93BF93CF93DF936A
:1006C000EF93FF93A091BD06B091BE060DB60D92BB
:1006D0000EB60D920E94300881110E94B609A091B9
:1006E000BD06B091BE06CD91CDBFDD91DEBFFF91BD
:1006F000EF91DF91CF91BF91AF919F918F917F91BA
:100700006F915F914F913F912F911F910F91FF90AA
:10071000EF90DF90CF90BF90AF909F908F907F90A1
:100720006F905F904F903F902F901F900F900FBE53
:100730000F9008950E943E0318950FB6F8940F92FB
:10074000FC01828D811102C081E001C080E00F9028
:100750000FBE08950FB6F8940F92FC01228D838D81
:10076000281302C081E001C080E00F900FBE089501
:100770001F93CF93DF93EC01142F4C8D41110CC0CC
:1007800088819981892B09F045C08A819B810E94CB
:10079000780B1B821A8245C0111117C050E08C8162
:1007A0009D810E94D6152C8D8C819D81820F911D7B
:1007B0009D838C832A813B818217930768F188810E
:1007C00099819D838C8380E02CC050E08E819F8135
:1007D0000E94D6158C8D90E09195819591092E817E
:1007E0003F81280F391F3F832E8348815981241769
:1007F000350730F42A813B81820F931F9F838E83BC
:10080000123061F48A8D882359F08A8D81508A8F45
:1008100080E007C080E005C080E003C080E001C048
:1008200080E09A8D9F5F9A8FDF91CF911F910895FD
:10083000FC01448D4423A9F050E026813781240F28
:10084000351F37832683828193812817390720F04B
:100850008081918197838683CB01668177810E9415
:10086000D6150895CF93DF93EC010FB6F8940F924D
:100870000DC08989882369F0CE0141960E94530AF0
:1008800081110E94120B8E8D81508E8F8E8D1816C5
:1008900084F38FEF8E8F0F900FBE0FB6F8940F92E8
:1008A0000DC08885882369F0CE0108960E94530AFE
:1008B00081110E94120B8D8D81508D8F8D8D181698
:1008C00084F38FEF8D8F0F900FBEDF91CF9108953E
:1008D000CF93DF93EC010FB6F8940F92E881F98182
:1008E0008B8D90E02C8D30E0829FA001839F500D76
:1008F000929F500D11244E0F5F1F5B834A831A8E07
:10090000FD83EC830197289FA001299F500D389FFC
:10091000500D1124CF01840F951F9F838E838FEF7D
:100920008D8F8E8F61110CC08885882389F0CE0150
:1009300008960E94530A813059F40E94E50208C0CB
:10094000CE0108960E94B701CE0141960E94B701E0
:100950000F900FBE81E0DF91CF9108950F931F9309
:10096000CF93DF93882301F1062F182F8FE190E0BA
:100970000E948101EC01892BC9F0109FC001112454
:1009800001960E94810199838883892B39F01B8FFE
:100990000C8F61E0CE010E94680408C0CE010E9465
:1009A000B601C0E0D0E002C0C0E0D0E0CE01DF91EF
:1009B000CF911F910F910895CF92DF92EF92FF9206
:1009C0000F931F93CF93DF9300D000D01F92CDB72A
:1009D000DEB78C017B015D834C83C22ED12C0FB618
:1009E000F8940F92F801928D838D981718F0F2E029
:1009F000CF1219C04C2DB701C8010E94B803F801ED
:100A00009189992349F0C80141960E94530A813087
:100A100031F40E94E50203C081110E94E5020F90AB
:100A20000FBE81E04DC08C819D81892B21F40F90F8
:100A30000FBE80E045C0D11006C0CE0101960E94D5
:100A4000D50ADD24D3940F900FBE0E942A080FB65A
:100A5000F8940F92F801858D8F3F09F4158EF801F7
:100A6000868D8F3F09F4168E0F900FBEBE016C5F0E
:100A70007F4FCE0101960E94E00A81111BC0C80180
:100A80000E94AA03882381F06C817D81C8010896A9
:100A90000E94120AC8010E9432040E94EC088111CF
:100AA0009ECF0E94E5029BCFC8010E9432040E94A3
:100AB000EC0895CFC8010E9432040E94EC0880E047
:100AC0000F900F900F900F900F90DF91CF911F918B
:100AD0000F91FF90EF90DF90CF900895CF93DF9329
:100AE0008FE190E00E948101EC01892BF9F01B82DB
:100AF0001A82198218821D821C821F821E821A8EFF
:100B000081E08B8F1C8E8FEF8D8F8E8FCE0108969C
:100B10000E94B701CE0141960E94B70120E040E05B
:100B200050E060E070E0CE010E94DC04CE01DF9175
:100B3000CF910895AF92BF92CF92DF92EF92FF9242
:100B40000F931F93CF93DF9300D000D01F92CDB7A8
:100B5000DEB78C016B015D834C83E22EF12C0FB666
:100B6000F8940F92F801828D882399F1A680B780BE
:100B7000B601C8010E941804E1101AC0F801828D64
:100B80008150828F80819181892B29F40E94CF0B23
:100B9000F80193838283F80180858823B1F0C8012E
:100BA00008960E94530A813081F40E94E5020DC02C
:100BB000F801B782A6828189882339F0C80141965D
:100BC0000E94530A81110E94E5020F900FBE81E03E
:100BD0005BC08C819D81892B21F40F900FBE80E03A
:100BE00053C0F11006C0CE0101960E94D50AFF2421
:100BF000F3940F900FBE0E942A080FB6F8940F923C
:100C0000F801858D8F3F09F4158EF801868D8F3F91
:100C100009F4168E0F900FBEBE016C5F7F4FCE01A0
:100C200001960E94E00A811129C0C8010E949D031B
:100C30008823F1F0F80180819181892B49F40FB666
:100C4000F8940F92828193810E94160B0F900FBE31
:100C50006C817D81C80141960E94120AC8010E94E0
:100C600032040E94EC0881117ACF0E94E50277CF0E
:100C7000C8010E9432040E94EC0871CFC8010E9492
:100C800032040E94EC0880E00F900F900F900F90BC
:100C90000F90DF91CF911F910F91FF90EF90DF9018
:100CA000CF90BF90AF900895E0917306F0917406D5
:100CB0008081811107C08FEF9FEF90936100809337
:100CC00060000895E0917306F09174060580F68146
:100CD000E02D0680F781E02D828193819093610061
:100CE000809360000895EF92FF920F931F93CF932C
:100CF000DF937C01EB0184E390E00E9481018C0191
:100D0000892B89F0209721F4C7010E94810101C03D
:100D1000CE01F801908F878B892B29F4C8010E949E
:100D2000B60100E010E0C801DF91CF911F910F9153
:100D3000FF90EF900895CF93DF93EC018F89988D0A
:100D40000E94B601CE010E94B601DF91CF910895B5
:100D50001F93CF93DF93EC01142F20E00FC0822F5D
:100D600090E0FB01E80FF91F3081DE01A80FB91FE9
:100D700059963C938081882319F02F5F293178F3AD
:100D800019AA163008F015E01E8B1AAB1BAACE016B
:100D900002960E94C501CE010C960E94C501D9871A
:100DA000C88786E090E0811B91099D878C87DB8B4B
:100DB000CA8BDF91CF911F910895CF93C0E010C0EF
:100DC0008C2F90E09C01220F331F220F331F220F24
:100DD000331F820F931F8957994F0E94B701CF5F2E
:100DE000C63070F38EE796E00E94B70185E796E083
:100DF0000E94B70188E696E00E94B7018FE596E071
:100E00000E94B7018EE796E0909374068093730674
:100E100085E796E09093720680937106CF910895CE
:100E2000CF93DF93EC01E091BD06F091BE06938372
:100E3000828380915B0690915C06C817D90768F49D
:100E40006091BD067091BE06809171069091720608
:100E50006E5F7F4F0E94EA0117C06091BD067091DE
:100E6000BE0680917306909174066E5F7F4F0E945C
:100E7000EA018091600090916100C817D90720F4C1
:100E8000D0936100C0936000DF91CF9108952F92BD
:100E90003F924F925F927F928F929F92AF92BF92BA
:100EA000CF92DF92EF92FF920F931F93CF93DF9336
:100EB00000D000D0CDB7DEB79A8389834B015C8325
:100EC0004B831901702EB6012501CA010E947306D9
:100ED0005C01009709F46AC0FC01C788D08C8B8143
:100EE0009C810197C80ED91E0B811C819201472D50
:100EF000B401C5010E94A806A10169817A81C601D9
:100F00000E944A02F50191838083E114F10419F0F3
:100F1000F701B182A0820FB6F8940F9280915D061E
:100F20008F5F80935D068091BD069091BE06892BF0
:100F300059F4B092BE06A092BD0680915D06813044
:100F400091F40E94DD060FC08091590681110BC0FB
:100F5000E091BD06F091BE068689781620F0B09229
:100F6000BE06A092BD06809155068F5F8093550600
:100F7000F501868990915A06981710F480935A06C5
:100F800090E0B5016E5F7F4F9C01220F331F220F4F
:100F9000331F220F331F820F931F8957994F0E94CF
:100FA000C9010F900FBEF1E0F98302C08FEF898372
:100FB000E981E13069F480915906882349F0E09194
:100FC000BD06F091BE068689871510F40E94E502E1
:100FD00089810F900F900F900F90DF91CF911F910B
:100FE0000F91FF90EF90DF90CF90BF90AF909F90C8
:100FF0008F907F905F904F903F902F900895AF9289
:10100000BF92CF92DF92EF92FF920F93A12CB12C5F
:10101000C12CD12CE12CF12C00E020E030E045E5A2
:1010200050E06FE670E08DEA99E00E94470781305A
:1010300049F4F8948093590610925C0610925B066E
:101040000E94B6020F91FF90EF90DF90CF90BF907B
:10105000AF900895809154068F5F80935406089551
:10106000DF92EF92FF920F931F93CF93DF938091C4
:101070005406811199C080915B0690915C0601969F
:1010800090935C0680935B06E0905B06F0905C06B4
:10109000E114F104B9F480917306909174062091E3
:1010A0007106309172063093740620937306909304
:1010B000720680937106809156068F5F8093560664
:1010C0000E9454068091600090916100E816F90634
:1010D00028F4D12C53C0DD24D39401C0D12CE0914D
:1010E0007306F09174068081811107C08FEF9FEF26
:1010F000909361008093600041C0E0917306F0918D
:1011000074060580F681E02DC681D7818A819B8196
:10111000E816F90628F490936100809360002EC0D1
:101120008E010E5F1F4FC8010E941B028C899D8992
:10113000892B21F0CE010C960E941B028E89909182
:101140005A06981710F480935A0690E09C01220FDB
:10115000331F220F331F220F331F820F931FB8013B
:101160008957994F0E94C9019E89E091BD06F0916F
:10117000BE068689981708F0AECFB1CFE091BD06C4
:10118000F091BE06868990E0FC01EE0FFF1FEE0F86
:10119000FF1FEE0FFF1F8E0F9F1FFC01E957F94F36
:1011A0008081823040F409C0809158068F5F80931F
:1011B0005806D12C02C0DD24D39480915706882391
:1011C00011F0DD24D3948D2DDF91CF911F910F91DC
:1011D000FF90EF90DF9008950F931F93CF93DF93CD
:1011E0000FB6F8940F928091540681508093540664
:1011F00080915406811157C080915D06811132C0E3
:1012000055C0E0916D06F0916E06C681D781CE0182
:101210000C960E941B028E010E5F1F4FC8010E9498
:101220001B028E8990915A06981710F480935A06E3
:1012300090E09C01220F331F220F331F220F331F18
:10124000820F931FB8018957994F0E94C9019E8947
:10125000E091BD06F091BE068689981718F081E0EE
:1012600080935706809168068111CBCF80915806F4
:1012700081110DC010C00E943008882319F081E050
:10128000809357068091580681508093580680912C
:1012900058068111F0CF80915706813031F40E94B9
:1012A000E50281E003C080E001C080E00F900FBE46
:1012B000DF91CF911F910F910895CF93DF93EC01B0
:1012C000892BA9F00E942A0880915B0690915C0608
:1012D000C80FD91F8091BD069091BE0602960E944C
:1012E0001B02CE010E9410070E94EC0801C080E0A2
:1012F000811102C00E94E502DF91CF910895CF9342
:10130000DF9324C00E942A08C0915F060E94EC0867
:10131000CC23E1F00FB6F8940F92E0916406F091BF
:101320006506C681D781CE0102960E941B0280917C
:101330005D06815080935D0680915E0681508093AA
:101340005E060F900FBECE010E949B0680915E0646
:101350008111D8CFDF91CF9108950E947F098091AC
:1013600087068230D0F30E94E502F7CF80915406C1
:10137000882321F081E08093570608951092570644
:1013800005C080915A06815080935A0680915A0672
:1013900090E0FC01EE0FFF1FEE0FFF1FEE0FFF1F8F
:1013A0008E0F9F1FFC01E957F94F8081882349F375
:1013B00080915A0690E09C01220F331F220F331FA9
:1013C000220F331F280F391FD901A957B94F119682
:1013D000ED91FC9112970280F381E02D1296FC931F
:1013E000EE9311972657394FE217F30729F422811C
:1013F0003381FD0132832183FC01EE0FFF1FEE0FCD
:10140000FF1FEE0FFF1F8E0F9F1FFC01E957F94FC3
:101410000180F281E02D868197819093BE068093B2
:10142000BD060895CF93DF93EB016091BD067091E7
:10143000BE06645F7F4F0E94EA018091BD069091D5
:10144000BE0602960E941B0280915B0690915C068C
:101450008C0F9D1F0E941007DF91CF910895CF93AD
:10146000DF93EA01E091BD06F091BE0670687587D2
:1014700064876091BD067091BE06645F7F4F0E94D5
:10148000C9018091BD069091BE0602960E941B0282
:1014900080915B0690915C068C0F9D1F0E94100747
:1014A000DF91CF9108950F931F93CF93DF93DC01CA
:1014B0001596ED91FC911697C681D7818E01045F38
:1014C0001F4FC8010E941B028091540681111CC04D
:1014D0000A501109C8010E941B028E8990915A0678
:1014E000981710F480935A0690E09C01220F331F46
:1014F000220F331F220F331F820F931FB80189570A
:10150000994F0E94C90105C0B80188E696E00E9483
:10151000C9019E89E091BD06F091BE0686898917B2
:1015200020F481E08093570601C080E0DF91CF91E5
:101530001F910F9108950F931F93CF93DF937068BE
:10154000FC0171836083C681D7810E941B028E01DA
:101550000E5F1F4FC8010E941B028E8990915A0690
:10156000981710F480935A0690E09C01220F331FC5
:10157000220F331F220F331F820F931FB801895789
:10158000994F0E94C9019E89E091BD06F091BE0667
:101590008689891720F481E08093570601C080E096
:1015A000DF91CF911F910F91089520915606FC0174
:1015B000208320915B0630915C063283218308955D
:1015C000CF93DF93FC010FB6F8940F9240915B0626
:1015D00050915C06908180915606981729F0818180
:1015E000928148175907B0F421813281CA01821BC8
:1015F000930BEB01A881B9818A179B0768F4CF018F
:10160000241B350B2A0F3B1F398328830E94D50AE0
:1016100080E003C081E001C081E00F900FBEDF9148
:10162000CF91089581E08093570608950F931F93FB
:10163000CF93DF93FC01892B09F455C02689A09133
:10164000BD06B091BE0656968C91281708F04BC087
:1016500084859585992364F0A091BD06B091BE065E
:1016600056963C9186E090E0831B9109958784878C
:101670008285938530E0A901440F551F440F551F03
:10168000440F551F240F351F2957394F82179307D1
:1016900019F58F01EF012296CE010E941B02E09105
:1016A000BD06F091BE068689F801868B90915A0698
:1016B000981710F480935A0690E09C01220F331F74
:1016C000220F331F220F331F820F931FBE01895732
:1016D000994F0E94C90107C0A091BD06B091BE06F6
:1016E00056968C91868BDF91CF911F910F91089523
:1016F0000F931F93CF93DF93FC01892B79F183A97B
:10170000815083AB268992A9291751F181112AC0F2
:10171000EF018F010E5F1F4FC8010E941B028AA9B3
:101720008E8B26E030E0281B31093D872C87909175
:101730005A06981710F480935A0690E09C01220FE5
:10174000331F220F331F220F331F820F931FB80145
:101750008957994F0E94C90181E005C080E003C00C
:1017600080E001C080E0DF91CF911F910F9108953B
:10177000E091BD06F091BE0684859585E091BD0699
:10178000F091BE06A091BD06B091BE0656964C9152
:1017900026E030E0241B31093587248708958091A5
:1017A000BD069091BE06892B39F0E091BD06F091FF
:1017B000BE0683A98F5F83AB8091BD069091BE0664
:1017C0000895CF93DF93C82F40E063E080E00E944C
:1017D00039128FEC97E00197F1F700C0000041E06B
:1017E00062E080E00E9439128FEC97E00197F1F7F8
:1017F00000C00000DC2FD295DF704D2F417060E0FB
:1018000081E00E943912D1FB442740F961E081E078
:101810000E943912D2FB442740F962E081E00E9425
:1018200039124C2F441F4427441F64E081E00E947A
:1018300039128FEC97E00197F1F700C0000040E00B
:1018400062E080E00E9439128FEC97E00197F1F797
:1018500000C0000041E062E080E00E9439128FEC9D
:1018600097E00197F1F700C00000DC2FDF704C2FEC
:10187000417060E081E00E943912D1FB442740F9B9
:1018800061E081E00E943912D2FB442740F962E016
:1018900081E00E9439124D2F46954695469564E0A9
:1018A00081E00E9439128FEC97E00197F1F700C0B8
:1018B000000040E062E080E00E9439128FEC97E087
:1018C0000197F1F700C00000DF91CF91089542E049
:1018D00063E080E00E94631142E062E080E00E94E9
:1018E000631142E060E081E00E94631142E061E048
:1018F00081E00E94631142E062E081E00E94631196
:1019000042E064E081E00E94631182E00E94E10B0A
:1019100088E20E94E10B8CE00E94E10B81E00E94D2
:10192000E10B0895CF93DF93C82F41E063E080E09F
:101930000E9439128FEC97E00197F1F700C0000088
:1019400041E062E080E00E9439128FEC97E001975D
:10195000F1F700C00000DC2FD295DF704D2F4170F1
:1019600060E081E00E943912D1FB442740F961E038
:1019700081E00E943912D2FB442740F962E081E005
:101980000E9439124C2F441F4427441F64E081E019
:101990000E9439128FEC97E00197F1F700C0000028
:1019A00040E062E080E00E9439128FEC97E00197FE
:1019B000F1F700C0000041E062E080E00E943912CF
:1019C0008FEC97E00197F1F700C00000DC2FDF708B
:1019D0004C2F417060E081E00E943912D1FB442716
:1019E00040F961E081E00E943912D2FB442740F9BE
:1019F00062E081E00E9439124D2F4695469546954A
:101A000064E081E00E9439128FEC97E00197F1F7D2
:101A100000C0000040E062E080E00E9439128FECDC
:101A200097E00197F1F700C000008091BF068F5F3B
:101A30008093BF06843159F48091C0068F5F8093F4
:101A4000C0061092BF06843111F41092C006DF91D7
:101A5000CF9108950F931F93CF938C01C0E003C0E3
:101A60000E94920CCF5FF801EC0FF11D8081811173
:101A7000F7CFCF911F910F910895813061F028F039
:101A8000823089F08330B9F01DC06093BF06109298
:101A9000C006962F17C090E4960F6093BF0681E0B2
:101AA0008093C0060FC094E1960F6093BF0682E05A
:101AB0008093C00607C094E5960F6093BF0683E04D
:101AC0008093C006892F80680E94E10B0895CF9310
:101AD000DF93EC01862F642F0E943D0DCE010E9402
:101AE0002A0DDF91CF9108951092BF061092C00683
:101AF00081E00E94E10B0895CF93DF93CDB7DEB76D
:101B000061970FB6F894DEBF0FBECDBFDC01CB01ED
:101B10004AE0BE016F5F7F4F0E94DF15CE01019644
:101B20000E942A0D61960FB6F894DEBF0FBECDBF9E
:101B3000DF91CF91089542E00E9463110895411111
:101B400003C00E9439120895413011F40E943912E5
:101B500008958F929F92AF92BF92CF92DF92EF92B1
:101B6000FF9281E00E945911BC0180E090E00E9448
:101B700056149B01AC0160E070EC8FE794E40E9486
:101B8000B51320E030E040E85FE30E94481320E016
:101B900030E44CE156E40E9434150E94EC146B01D1
:101BA0007C0126ED34E649E759E30E9434152BEC1D
:101BB00038E444E85AE30E9449134B015C012CE6E7
:101BC0003FEC48E554E3C701B6010E9434159B0180
:101BD000AC01C701B6010E9434159B01AC01C701DD
:101BE000B6010E9434159B01AC01C501B4010E94ED
:101BF00049139B01AC0160E070E080E89FE30E9424
:101C0000B51323E333E948E853E40E9448130E94E4
:101C10002714862FFF90EF90DF90CF90BF90AF906A
:101C20009F908F9008950E94A90D8093CD0690916A
:101C30006300891748F061E070E08091C3069091DD
:101C4000C4060E941D0108C061E070E08091C306D7
:101C50009091C4060E940E0120E04AE050E060E04E
:101C600070E08091CB069091CC060E949A0581305D
:101C700019F56AE080E00E943D0D6091CD0670E0AC
:101C800080E090E00E947C0D8091CD06843620F4A7
:101C900087E591E00E942A0D84E790E00E942B13D3
:101CA00020E040E050E060E070E08091CB06909151
:101CB000CC060E94DC0404C084E890E00E942B1350
:101CC00084EF91E00E945D09AECFCF93DF9300D007
:101CD00000D01F92CDB7DEB719821A821B821C82F8
:101CE0001D8210E000E007C011E005C010E000E038
:101CF00002C010E000E0CE0105960E943F13882349
:101D0000D1F38D81873481F3113069F490ED980F10
:101D10009A3048F4E1E0F0E0EC0FFD1FE00FF11D18
:101D200080830F5FE8CF1130C1F48B34B1F4E1E070
:101D3000F0E0EC0FFD1FE00FF11D108220E04AE003
:101D400050E0BE016F5F7F4F8091C7069091C8063B
:101D50000E94DC0410E000E0CECF113011F4833497
:101D600029F2843569F420E04AE050E0BE016B5F5F
:101D70007F4F8091C5069091C6060E94DC04BBCFC0
:101D8000843409F0B6CF20E04AE050E0BE016B5F3A
:101D90007F4F8091C5069091C6060E94DC04ABCFB0
:101DA000CF93DF9300D000D01F92CDB7DEB719825A
:101DB0001A821B821C8220E046E950E0BE016F5F60
:101DC0007F4F8091C7069091C8060E949A0588238C
:101DD00009F448C089818053880F982F990F990F73
:101DE000890F9A81890F8053809363009091CD066B
:101DF000981748F061E070E08091C3069091C406A6
:101E00000E941D0108C061E070E08091C3069091BE
:101E1000C4060E940E0120E04AE050E060E070E05D
:101E20008091CB069091CC060E949A058130B1F446
:101E300040E161E0CE0101960E94670D8BE990E0E0
:101E40000E942B1320E040E050E060E070E08091C1
:101E5000CB069091CC060E94DC0404C081EB90E09C
:101E60000E942B1320E046E950E0BE016B5F7F4FDC
:101E70008091C5069091C6060E949A05882309F4B0
:101E80009ACF8D81843491F51092620062E070E007
:101E90008091C3069091C4060E940E0120E04AE0A2
:101EA00050E060E070E08091CB069091CC060E94FB
:101EB0009A058130B1F44DE062E08EEC90E00E9432
:101EC000670D8AED90E00E942B1320E040E050E087
:101ED00060E070E08091CB069091CC060E94DC041B
:101EE0006ACF80ED90E00E942B1365CF843509F016
:101EF00062CF80916200813091F51092620062E0C1
:101F000070E08091C3069091C4060E940E0120E00B
:101F10004AE050E060E070E08091CB069091CC0602
:101F20000E949A058130B1F44DE062E08EEC90E0C1
:101F30000E94670D8AED90E00E942B1320E040E0A4
:101F400050E060E070E08091CB069091CC060E945A
:101F5000DC0431CF8FEE90E00E942B132CCF811147
:101F60002ACF81E08093620062E070E08091C30636
:101F70009091C4060E941D0120E04AE050E060E01C
:101F800070E08091CB069091CC060E949A0581303A
:101F9000B1F44DE062E082E790E00E94670D83E1DA
:101FA00091E00E942B1320E040E050E060E070E000
:101FB0008091CB069091CC060E94DC04FCCE8FEE83
:101FC00090E00E942B13F7CE0E94670C0E94DD1256
:101FD0000E94F81060E082E00E949B0D08950E942C
:101FE000740D40E060E087E291E00E94670D0E947E
:101FF000A90D8093CD066AE080E00E943D0D6091BE
:10200000CD0670E080E090E00E947C0D40E061E051
:1020100086E391E00E94670D60E181E00E943D0D42
:102020006091630070E080E090E00E947C0D40E0F1
:1020300062E08BE491E00E94670D6DE082E00E9417
:102040003D0D80916200813021F485E40E94920C64
:10205000089584E40E94920C0895AF92BF92CF92AB
:10206000DF92EF92FF920F930E94E40F0E94EF0F16
:1020700081E00E946E059093CC068093CB0640E0F1
:1020800063E083E00E94AE049093C8068093C70685
:1020900040E061E083E00E94AE049093C606809326
:1020A000C5060E9489009093C4068093C306A12CA4
:1020B000B12CC12CD12CE12CF12C04E020E030E03B
:1020C00048EC50E069E571E086EA90E10E9447073C
:1020D00002E02DEC36E044E650E06AE671E083E190
:1020E0009EE00E94470703E020E030E044E650E035
:1020F0006EE771E080ED9EE00E94470701E020E07E
:1021000030E044E650E065E971E085E69EE00E943B
:10211000470762E070E08091C3069091C4060E9478
:102120001D010E94FF0780E090E00F91FF90EF906B
:10213000DF90CF90BF90AF9008950E94740D44E05F
:1021400061E087EA91E00E94670D0895C0E004EF26
:1021500011E021E040E063E070E08091C3069091DF
:10216000C4060E949C009093C2068093C1068370AF
:1021700099270397D1F420E04AE050E060E070E056
:102180008091CB069091CC060E949A058130F9F699
:1021900041E060E082E00E949F0D83EB91E00E94AD
:1021A0002B130E949D10C1E0D2CFC13081F640E0D8
:1021B00060E082E00E949F0D0E94EF0F89EC91E0A9
:1021C0000E942B1320E040E050E060E070E080913E
:1021D000CB069091CC060E94DC04C0E0B8CF87709B
:1021E00097B1907E892B87B986B1806486B90895AE
:1021F00027B1E4E6F0E0918130E4939FC00111241F
:10220000922F9F73892B87B98281811104C087B176
:102210008F7D87B905C0813019F487B1806287B995
:1022200086B1806886B9809164008823C9F08130C6
:1022300039F486B1806286B980B78F7080BF10C0D4
:10224000823071F486B1806286B920B790916800BF
:1022500030E2939FC0011124922F9F70892B80BF81
:1022600096B180916700987F8770892B86B986B177
:10227000877F86B9089580916600811108C024B1D6
:1022800085B1837090E0982F8827822B0895813044
:1022900069F424B1229526952695237085B190E0A6
:1022A000880F991F880F991F822B089580E090E076
:1022B00008950E94EF10349BFECF0E943B1126B17F
:1022C000206126B90895843008F0D2C0683008F043
:1022D000CFC08130D1F138F0823009F468C083304A
:1022E00009F496C00895411110C02AB381E090E02E
:1022F00002C0880F991F6A95E2F78095922F982364
:102300009ABB9BB389238BBB0895413081F42AB3D8
:1023100081E090E002C0880F991F6A95E2F7982F3C
:10232000909592239ABB9BB3892B8BBB0895423027
:1023300009F09EC02AB381E090E002C0880F991F87
:102340006A95E2F7822B8ABB0895411110C027B32A
:1023500081E090E002C0880F991F6A95E2F78095AE
:10236000922F982397BB98B3892388BB0895413057
:1023700081F427B381E090E002C0880F991F6A952D
:10238000E2F7982F9095922397BB98B3892B88BB3F
:102390000895423009F06CC027B381E090E002C09C
:1023A000880F991F6A95E2F7822B87BB0895411128
:1023B00010C024B381E090E002C0880F991F6A9595
:1023C000E2F78095922F982394BB95B3892385BB20
:1023D0000895413081F424B381E090E002C0880F79
:1023E000991F6A95E2F7982F9095922394BB95B325
:1023F000892B85BB08954230D9F524B381E090E064
:1024000002C0880F991F6A95E2F7822B84BB08955A
:10241000411110C021B381E090E002C0880F991FE4
:102420006A95E2F78095922F982391BB92B3892306
:1024300082BB0895413081F421B381E090E002C075
:10244000880F991F6A95E2F7982F9095922391BB78
:1024500092B3892B82BB0895423051F421B381E0BD
:1024600090E002C0880F991F6A95E2F7822B81BB2A
:102470000895843008F077C0683008F074C0813067
:1024800011F130F08230D1F1833009F452C0089557
:10249000413059F42BB381E090E002C0880F991FBE
:1024A0006A95E2F7822B8BBB089541115CC02BB378
:1024B00081E090E002C0880F991F6A95E2F780954D
:1024C00082238BBB0895413059F428B381E090E01A
:1024D00002C0880F991F6A95E2F7822B88BB089586
:1024E000411141C028B381E090E002C0880F991FDC
:1024F0006A95E2F78095822388BB0895413059F4AC
:1025000025B381E090E002C0880F991F6A95E2F739
:10251000822B85BB0895411126C025B381E090E050
:1025200002C0880F991F6A95E2F78095822385BBC8
:102530000895413059F422B381E090E002C0880F41
:10254000991F6A95E2F7822B82BB089541110BC057
:1025500022B381E090E002C0880F991F6A95E2F7EC
:102560008095822382BB08951F920F920FB60F921F
:1025700011242F933F934F935F936F937F938F9388
:102580009F93AF93BF93EF93FF93E091C906F091B0
:10259000CA06309709F00995FF91EF91BF91AF916D
:1025A0009F918F917F916F915F914F913F912F916B
:1025B0000F900FBE0F901F90189580916C008111A5
:1025C00004C08AB188608AB90EC0813021F48AB112
:1025D00080618AB908C0823031F48AB180618AB9D9
:1025E0008AB188608AB9E9E6F0E0418180E1489FDC
:1025F000A00111249281292F30E0220F331F220FD6
:10260000331F220F331F9081892F90E0880F991F6D
:102610004068242B822B80BD2AB190819470892F31
:1026200090E0880F991F880F991F922F9B7F892B0D
:102630008AB9858180BD848189B908955D9BFECF6B
:1026400090FF04C02AB121602AB903C02AB12E7FAD
:102650002AB98CB908950F931F93CF938C01C0E0D2
:1026600004C090E00E941E13CF5FF801EC0FF11D33
:1026700080818111F6CFCF911F910F9108955F9BBB
:1026800005C02CB1FC01208381E0089580E008950D
:102690005058BB27AA270E9460130C94AA140E94CA
:1026A0009C1438F00E94A31420F039F49F3F19F4D1
:1026B00026F40C9499140EF4E095E7FB0C94931413
:1026C000E92F0E94BB1458F3BA17620773078407F7
:1026D000950720F079F4A6F50C94DD140EF4E0953E
:1026E0000B2EBA2FA02D0B01B90190010C01CA01CC
:1026F000A0011124FF27591B99F0593F50F4503E77
:1027000068F11A16F040A22F232F342F4427585F68
:10271000F3CF469537952795A795F0405395C9F780
:102720007EF41F16BA0B620B730B840BBAF0915038
:10273000A1F0FF0FBB1F661F771F881FC2F70EC0D7
:10274000BA0F621F731F841F48F4879577956795AA
:10275000B795F7959E3F08F0B0CF9395880F08F096
:102760009927EE0F9795879508950E94C9130C94A9
:10277000AA140E94A31458F00E949C1440F029F45B
:102780005F3F29F00C94931451110C94DE140C94B7
:1027900099140E94BB1468F39923B1F3552391F364
:1027A000951B550BBB27AA2762177307840738F0C0
:1027B0009F5F5F4F220F331F441FAA1FA9F335D01D
:1027C0000E2E3AF0E0E832D091505040E695001CD1
:1027D000CAF72BD0FE2F29D0660F771F881FBB1F8B
:1027E000261737074807AB07B0E809F0BB0B802D69
:1027F000BF01FF2793585F4F3AF09E3F510578F095
:102800000C9493140C94DE145F3FE4F3983ED4F3DD
:10281000869577956795B795F7959F5FC9F7880F68
:10282000911D9695879597F90895E1E0660F771FBA
:10283000881FBB1F621773078407BA0720F0621B4B
:10284000730B840BBA0BEE1F88F7E09508950E9476
:10285000C31488F09F5798F0B92F9927B751B0F05B
:10286000E1F0660F771F881F991F1AF0BA95C9F714
:1028700014C0B13091F00E94DD14B1E008950C94C1
:10288000DD14672F782F8827B85F39F0B93FCCF374
:10289000869577956795B395D9F73EF49095809591
:1028A000709561957F4F8F4F9F4F0895E89409C0B1
:1028B00097FB3EF490958095709561957F4F8F4F73
:1028C0009F4F9923A9F0F92F96E9BB279395F69589
:1028D000879577956795B795F111F8CFFAF4BB0F07
:1028E00011F460FF1BC06F5F7F4F8F4F9F4F16C06B
:1028F000882311F096E911C0772321F09EE8872FF5
:10290000762F05C0662371F096E8862F70E060E0B0
:102910002AF09A95660F771F881FDAF7880F969529
:10292000879597F9089597F99F6780E870E060E0D0
:1029300008959FEF80EC089500240A941616170658
:1029400018060906089500240A94121613061406A0
:1029500005060895092E0394000C11F4882352F003
:10296000BB0F40F4BF2B11F460FF04C06F5F7F4FBB
:102970008F4F9F4F089557FD9058440F551F59F0A2
:102980005F3F71F04795880F97FB991F61F09F3F5C
:1029900079F087950895121613061406551FF2CF85
:1029A0004695F1DF08C0161617061806991FF1CFD5
:1029B00086957105610508940895E894BB276627FC
:1029C0007727CB0197F9089516F00C94A1150C9474
:1029D000991468940C9493140E94C314A8F3992337
:1029E000C1F3AEF3DF93CF931F930F93FF92C92FE1
:1029F000DD2788232AF02197660F771F881FDAF7D3
:102A000020E030E040E85FEB9FE3883920F0803E33
:102A100038F021968F770E944913E4E5F0E004C076
:102A20000E944913E1E8F0E00E94AF158B01BE015E
:102A3000EC01FB2E6F5771097595771F880B990B69
:102A40000E94581428E132E741E35FE30E944715F2
:102A5000AF2D9801AE01FF900F911F91CF91DF91A3
:102A60000E9460130C94AA140E9447150C94AA1497
:102A70000E949C1438F00E94A31420F0952311F0BA
:102A80000C9493140C94991411240C94DE140E9449
:102A9000BB1470F3959FC1F3950F50E0551F629FD3
:102AA000F001729FBB27F00DB11D639FAA27F00DA7
:102AB000B11DAA1F649F6627B00DA11D661F829FCE
:102AC0002227B00DA11D621F739FB00DA11D621FB3
:102AD000839FA00D611D221F749F3327A00D611DD0
:102AE000231F849F600D211D822F762F6A2F1124B2
:102AF0009F5750409AF0F1F088234AF0EE0FFF1FE5
:102B0000BB1F661F771F881F91505040A9F79E3F3B
:102B1000510580F00C9493140C94DE145F3FE4F3A1
:102B2000983ED4F3869577956795B795F795E79591
:102B30009F5FC1F7FE2B880F911D9695879597F99A
:102B400008959F3F31F0915020F4879577956795D0
:102B5000B795880F911D9695879597F90895DF93FE
:102B6000CF931F930F93FF92EF92DF927B018C0123
:102B7000689406C0DA2EEF010E944715FE01E89422
:102B8000A5912591359145915591A6F3EF010E94AC
:102B90006013FE019701A801DA9469F7DF90EF90C6
:102BA000FF900F911F91CF91DF910895FB01DC0100
:102BB00002C001900D9241505040D8F70895BB27B4
:102BC0004A3031F4992322F4BDE2909581959F4FCC
:102BD0000C94EB15BB27FB015527AA27880F991FDB
:102BE000AA1FA41710F0A41B83955051B9F7A05D3C
:102BF000AA3308F0A95DA193009779F7B111B193B9
:102C00001192CB010C940416DC01FC01672F719129
:102C10007723E1F7329704C07C916D9370836291C2
:0C2C2000AE17BF07C8F30895F894FFCF6B
:102C2C00FFFF0150000100060003000002330049C1
:102C3C00444C450041444320757064617465206CBC
:102C4C0063640D00414443204661696C65642075E2
:102C5C007064617465206C63640D005468726573F4
:102C6C00686F6C6420757064617465206C63640DAE
:102C7C00005468726573686F6C64204661696C659A
:102C8C006420757064617465206C63640D0044008D
:102C9C004661696C656420746F2044697361626C71
:102CAC006520466972652053797374656D0D004615
:102CBC0061696C656420746F20746F67676C652044
:102CCC00466972652053797374656D2073746174F1
:102CDC00650D00656E61626C6520466972652053F6
:102CEC00797374656D0D004375722054656D703A7F
:102CFC002020202043005468726573686F6C642038
:102D0C0054656D703A202020204300416C61726D37
:102D1C002053746174653A2000456D657267656E69
:102D2C0063795F6E6F726D616C0055706461746570
:102D3C002043757272656E742054656D70007570E9
:102D4C0064617465205468726573686F6C645F733A
:102D5C0074617465005265636965766520554152EE
:102D6C0054204D65737300212120414C41524D205C
:102D7C002121004669726520212121212121212157
:102D8C00212121212121210D004E6F2046697265E0
:022D9C000D0028
:00000001FF
