:100000000C9457000C9474000C9474000C947400BD
:100010000C9474000C9474000C9474000C949A0367
:100020000C9474000C9474000C9474000C94740080
:100030000C9474000C9491120C9474000C94740041
:100040000C9474000C9474000C9474000C94740060
:100050000C94740008000000BE922449123EABAA22
:10006000AA2ABECDCCCC4C3E00000080BEABAAAAD2
:10007000AA3E00000000BF000000803F000000001A
:1000800000084178D3BB4387D1133D190E3CC3BD53
:100090004282AD2B3E68EC8276BED98FE1A93E4C00
:1000A00080EFFFBE01C4FF7F3F000000000011246D
:1000B0001FBECFE5D8E0DEBFCDBF11E0A0E6B0E0C7
:1000C000E6EEFBE202C005900D92A234B107D9F72B
:1000D00026E0A2E4B1E001C01D92AE33B207E1F721
:1000E0000E940E100C94F1150C940000411106C0F2
:1000F00068237923672B49F480E0089586239723AA
:100100006817790721F080E0089581E0089581E083
:100110000895CF93DF938BE090E00E948101EC0182
:10012000009731F0FC0111921192CF010E94B701AA
:10013000CE01DF91CF910895AF92BF92CF92DF921F
:10014000EF92FF920F931F93CF93DF937C015B019C
:10015000C42ED22E0E942A08F701C081D1814D2DD4
:10016000B501CE010E947600882369F0CC2009F108
:10017000C501809590958C239D23F7019183808301
:1001800000E010E018C001151105A9F0C11003C06E
:1001900060E070E002C060E071E0D11074606A2934
:1001A0007B29A801C70102960E942F0AC0E0D0E077
:1001B00002C000E010E00E94EC08012B19F181114F
:1001C00002C00E94E5020E94B80BEC0191FD19C02B
:1001D0000FB6F8940F92F701C081D1814D2DB50172
:1001E000CE010E947600882351F0CC2041F0B50169
:1001F000609570956C237D23F701718360830F9068
:100200000FBEDD27CE01DF91CF911F910F91FF909F
:10021000EF90DF90CF90BF90AF900895FC010FB6A4
:10022000F8940F928081918160957095682379236D
:10023000718360830F900FBE0895CF92DF92EF928B
:10024000FF920F931F93CF93DF937C018B01EC01FF
:1002500025960E942A08D7011796ED91FC911897D0
:100260008D919C911197082B192B0D931C9300E0F5
:1002700010E02DC0C280D380808191819C01332702
:1002800092FD09C0D7014D915C9142235323452B28
:1002900061F440E00DC0D7014D915C91422353239E
:1002A0002417350721F040E003C041E001C041E0E0
:1002B000442359F090FF02C0022B132BD7016D91FC
:1002C0007C917260CF010E949B0AEC2DFD2DEC17F2
:1002D000FD0781F600951095F70180819181082333
:1002E0001923118300830E94EC08D7018D919C9102
:1002F000DF91CF911F910F91FF90EF90DF90CF9002
:100300000895CF93DF93EC010E942A088091420167
:1003100090914301892B31F487E491E0909343015C
:10032000809342012091440130914501C9018C0F15
:100330009D1F8D3744E0940770F42817390770F437
:10034000C0914201D0914301C20FD31F9093450148
:100350008093440105C0C0E0D0E002C0C0E0D0E01E
:100360000E94EC08CE01DF91CF9108950895FC0121
:100370000396928381832FEF3FEF34832383968309
:1003800085839087878310820895FC0111861086EB
:100390000895CF93DF939C01FB01DC011196CD9171
:1003A000DC911297D383C2838C819D819583848352
:1003B0008C819D81DC0113967C936E9312977D83D3
:1003C0006C8331872087F90180818F5F8083DF9183
:1003D000CF910895CF93DF93EB01488159814F3F2F
:1003E0002FEF520721F4FC01A781B0850DC0DC017D
:1003F000139601C0DF011296ED91FC9113972081B5
:10040000318142175307B0F71296ED91FC91139783
:10041000FB83EA83D583C483BD83AC831396DC93CB
:10042000CE93129799878887FC0120812F5F2083C4
:10043000DF91CF910895CF93DF93FC01A085B18523
:10044000C281D381848195819D838C83C481D58130
:10045000828193819B838A8311968D919C911297BF
:10046000E817F90731F48481958112969C938E9355
:100470001197118610868C9181508C93DF91CF91CA
:1004800008951BBC8CE78ABD8BE08EBD89B7806167
:1004900089BF089531E1FC013083319722E2208346
:1004A0003197A3E3A08331976083319770833197AD
:1004B0001082319760E8608331971082319762E053
:1004C0006083319763E06083319764E060833197A4
:1004D00065E06083319766E06083319767E0608311
:1004E000319768E06083319769E06083319760E11C
:1004F000608331973083319732E13083319733E134
:100500003083319734E13083319735E1308331974F
:1005100036E13083319737E13083319738E13083EA
:10052000319739E13083319730E23083319731E2CE
:10053000308331972083319723E2208331974083A2
:1005400031975083319726E22083319727E2208329
:10055000319728E22083319729E22083319720E3E5
:100560002083319721E32083869708950E944102DA
:10057000A0912D06B0912E06CD91CDBFDD91DEBFAD
:10058000FF91EF91DF91CF91BF91AF919F918F91AB
:100590007F916F915F914F913F912F911F910F919B
:1005A000FF90EF90DF90CF90BF90AF909F908F9093
:1005B0007F906F905F904F903F902F901F900F9083
:1005C0000FBE0F90089581E008950F920FB6F89432
:1005D0000F921F9211242F923F924F925F926F922F
:1005E0007F928F929F92AF92BF92CF92DF92EF92C3
:1005F000FF920F931F932F933F934F935F936F93AC
:100600007F938F939F93AF93BF93CF93DF93EF939A
:10061000FF93A0912D06B0912E060DB60D920EB649
:100620000D920E94B609A0912D06B0912E06CD9193
:10063000CDBFDD91DEBFFF91EF91DF91CF91BF91F3
:10064000AF919F918F917F916F915F914F913F916A
:100650002F911F910F91FF90EF90DF90CF90BF905F
:10066000AF909F908F907F906F905F904F903F9052
:100670002F901F900F900FBE0F9008950F920FB6FE
:10068000F8940F921F9211242F923F924F925F92F3
:100690006F927F928F929F92AF92BF92CF92DF9292
:1006A000EF92FF920F931F932F933F934F935F937C
:1006B0006F937F938F939F93AF93BF93CF93DF936A
:1006C000EF93FF93A0912D06B0912E060DB60D92DB
:1006D0000EB60D920E94300881110E94B609A091B9
:1006E0002D06B0912E06CD91CDBFDD91DEBFFF91DD
:1006F000EF91DF91CF91BF91AF919F918F917F91BA
:100700006F915F914F913F912F911F910F91FF90AA
:10071000EF90DF90CF90BF90AF909F908F907F90A1
:100720006F905F904F903F902F901F900F900FBE53
:100730000F9008950E943E0318950FB6F8940F92FB
:10074000FC01828D811102C081E001C080E00F9028
:100750000FBE08950FB6F8940F92FC01228D838D81
:10076000281302C081E001C080E00F900FBE089501
:100770001F93CF93DF93EC01142F4C8D41110CC0CC
:1007800088819981892B09F045C08A819B810E94CB
:10079000780B1B821A8245C0111117C050E08C8162
:1007A0009D810E94B3152C8D8C819D81820F911D9E
:1007B0009D838C832A813B818217930768F188810E
:1007C00099819D838C8380E02CC050E08E819F8135
:1007D0000E94B3158C8D90E09195819591092E81A1
:1007E0003F81280F391F3F832E8348815981241769
:1007F000350730F42A813B81820F931F9F838E83BC
:10080000123061F48A8D882359F08A8D81508A8F45
:1008100080E007C080E005C080E003C080E001C048
:1008200080E09A8D9F5F9A8FDF91CF911F910895FD
:10083000FC01448D4423A9F050E026813781240F28
:10084000351F37832683828193812817390720F04B
:100850008081918197838683CB01668177810E9415
:10086000B3150895CF93DF93EC010FB6F8940F9270
:100870000DC08989882369F0CE0141960E94530AF0
:1008800081110E94120B8E8D81508E8F8E8D1816C5
:1008900084F38FEF8E8F0F900FBE0FB6F8940F92E8
:1008A0000DC08885882369F0CE0108960E94530AFE
:1008B00081110E94120B8D8D81508D8F8D8D181698
:1008C00084F38FEF8D8F0F900FBEDF91CF9108953E
:1008D000CF93DF93EC010FB6F8940F92E881F98182
:1008E0008B8D90E02C8D30E0829FA001839F500D76
:1008F000929F500D11244E0F5F1F5B834A831A8E07
:10090000FD83EC830197289FA001299F500D389FFC
:10091000500D1124CF01840F951F9F838E838FEF7D
:100920008D8F8E8F61110CC08885882389F0CE0150
:1009300008960E94530A813059F40E94E50208C0CB
:10094000CE0108960E94B701CE0141960E94B701E0
:100950000F900FBE81E0DF91CF9108950F931F9309
:10096000CF93DF93882301F1062F182F8FE190E0BA
:100970000E948101EC01892BC9F0109FC001112454
:1009800001960E94810199838883892B39F01B8FFE
:100990000C8F61E0CE010E94680408C0CE010E9465
:1009A000B601C0E0D0E002C0C0E0D0E0CE01DF91EF
:1009B000CF911F910F910895CF92DF92EF92FF9206
:1009C0000F931F93CF93DF9300D000D01F92CDB72A
:1009D000DEB78C017B015D834C83C22ED12C0FB618
:1009E000F8940F92F801928D838D981718F0F2E029
:1009F000CF1219C04C2DB701C8010E94B803F801ED
:100A00009189992349F0C80141960E94530A813087
:100A100031F40E94E50203C081110E94E5020F90AB
:100A20000FBE81E04DC08C819D81892B21F40F90F8
:100A30000FBE80E045C0D11006C0CE0101960E94D5
:100A4000D50ADD24D3940F900FBE0E942A080FB65A
:100A5000F8940F92F801858D8F3F09F4158EF801F7
:100A6000868D8F3F09F4168E0F900FBEBE016C5F0E
:100A70007F4FCE0101960E94E00A81111BC0C80180
:100A80000E94AA03882381F06C817D81C8010896A9
:100A90000E94120AC8010E9432040E94EC088111CF
:100AA0009ECF0E94E5029BCFC8010E9432040E94A3
:100AB000EC0895CFC8010E9432040E94EC0880E047
:100AC0000F900F900F900F900F90DF91CF911F918B
:100AD0000F91FF90EF90DF90CF900895CF93DF9329
:100AE0008FE190E00E948101EC01892BF9F01B82DB
:100AF0001A82198218821D821C821F821E821A8EFF
:100B000081E08B8F1C8E8FEF8D8F8E8FCE0108969C
:100B10000E94B701CE0141960E94B70120E040E05B
:100B200050E060E070E0CE010E94DC04CE01DF9175
:100B3000CF910895AF92BF92CF92DF92EF92FF9242
:100B40000F931F93CF93DF9300D000D01F92CDB7A8
:100B5000DEB78C016B015D834C83E22EF12C0FB666
:100B6000F8940F92F801828D882399F1A680B780BE
:100B7000B601C8010E941804E1101AC0F801828D64
:100B80008150828F80819181892B29F40E94CF0B23
:100B9000F80193838283F80180858823B1F0C8012E
:100BA00008960E94530A813081F40E94E5020DC02C
:100BB000F801B782A6828189882339F0C80141965D
:100BC0000E94530A81110E94E5020F900FBE81E03E
:100BD0005BC08C819D81892B21F40F900FBE80E03A
:100BE00053C0F11006C0CE0101960E94D50AFF2421
:100BF000F3940F900FBE0E942A080FB6F8940F923C
:100C0000F801858D8F3F09F4158EF801868D8F3F91
:100C100009F4168E0F900FBEBE016C5F7F4FCE01A0
:100C200001960E94E00A811129C0C8010E949D031B
:100C30008823F1F0F80180819181892B49F40FB666
:100C4000F8940F92828193810E94160B0F900FBE31
:100C50006C817D81C80141960E94120AC8010E94E0
:100C600032040E94EC0881117ACF0E94E50277CF0E
:100C7000C8010E9432040E94EC0871CFC8010E9492
:100C800032040E94EC0880E00F900F900F900F90BC
:100C90000F90DF91CF911F910F91FF90EF90DF9018
:100CA000CF90BF90AF900895E091E305F091E405F7
:100CB0008081811107C08FEF9FEF90936100809337
:100CC00060000895E091E305F091E4050580F68168
:100CD000E02D0680F781E02D828193819093610061
:100CE000809360000895EF92FF920F931F93CF932C
:100CF000DF937C01EB0184E390E00E9481018C0191
:100D0000892B89F0209721F4C7010E94810101C03D
:100D1000CE01F801908F878B892B29F4C8010E949E
:100D2000B60100E010E0C801DF91CF911F910F9153
:100D3000FF90EF900895CF93DF93EC018F89988D0A
:100D40000E94B601CE010E94B601DF91CF910895B5
:100D50001F93CF93DF93EC01142F20E00FC0822F5D
:100D600090E0FB01E80FF91F3081DE01A80FB91FE9
:100D700059963C938081882319F02F5F293178F3AD
:100D800019AA163008F015E01E8B1AAB1BAACE016B
:100D900002960E94C501CE010C960E94C501D9871A
:100DA000C88786E090E0811B91099D878C87DB8B4B
:100DB000CA8BDF91CF911F910895CF93C0E010C0EF
:100DC0008C2F90E09C01220F331F220F331F220F24
:100DD000331F820F931F89509A4F0E94B701CF5F34
:100DE000C63070F38EEE95E00E94B70185EE95E077
:100DF0000E94B70188ED95E00E94B7018FEC95E065
:100E00000E94B7018EEE95E09093E4058093E30590
:100E100085EE95E09093E2058093E105CF910895EA
:100E2000CF93DF93EC01E0912D06F0912E06938392
:100E300082838091CB059091CC05C817D90768F4BF
:100E400060912D0670912E068091E1059091E2054A
:100E50006E5F7F4F0E94EA0117C060912D0670916E
:100E60002E068091E3059091E4056E5F7F4F0E940E
:100E7000EA018091600090916100C817D90720F4C1
:100E8000D0936100C0936000DF91CF9108952F92BD
:100E90003F924F925F927F928F929F92AF92BF92BA
:100EA000CF92DF92EF92FF920F931F93CF93DF9336
:100EB00000D000D0CDB7DEB79A8389834B015C8325
:100EC0004B831901702EB6012501CA010E947306D9
:100ED0005C01009709F46AC0FC01C788D08C8B8143
:100EE0009C810197C80ED91E0B811C819201472D50
:100EF000B401C5010E94A806A10169817A81C601D9
:100F00000E944A02F50191838083E114F10419F0F3
:100F1000F701B182A0820FB6F8940F928091CD05AF
:100F20008F5F8093CD0580912D0690912E06892BA1
:100F300059F4B0922E06A0922D068091CD058130F5
:100F400091F40E94DD060FC08091C90581110BC08C
:100F5000E0912D06F0912E068689781620F0B09249
:100F60002E06A0922D068091C5058F5F8093C50542
:100F7000F50186899091CA05981710F48093CA05E7
:100F800090E0B5016E5F7F4F9C01220F331F220F4F
:100F9000331F220F331F820F931F89509A4F0E94D5
:100FA000C9010F900FBEF1E0F98302C08FEF898372
:100FB000E981E13069F48091C905882349F0E09125
:100FC0002D06F0912E068689871510F40E94E50201
:100FD00089810F900F900F900F90DF91CF911F910B
:100FE0000F91FF90EF90DF90CF90BF90AF909F90C8
:100FF0008F907F905F904F903F902F900895AF9289
:10100000BF92CF92DF92EF92FF920F93A12CB12C5F
:10101000C12CD12CE12CF12C00E020E030E045E5A2
:1010200050E06FE670E08DEA99E00E94470781305A
:1010300049F4F8948093C9051092CC051092CB0521
:101040000E94B6020F91FF90EF90DF90CF90BF907B
:10105000AF9008958091C4058F5F8093C405089573
:10106000DF92EF92FF920F931F93CF93DF938091C4
:10107000C405811199C08091CB059091CC05019652
:101080009093CC058093CB05E090CB05F090CC05F8
:10109000E114F104B9F48091E3059091E405209105
:1010A000E1053091E2053093E4052093E305909348
:1010B000E2058093E1058091C6058F5F8093C605A8
:1010C0000E9454068091600090916100E816F90634
:1010D00028F4D12C53C0DD24D39401C0D12CE0914D
:1010E000E305F091E4058081811107C08FEF9FEF48
:1010F000909361008093600041C0E091E305F0911E
:10110000E4050580F681E02DC681D7818A819B8127
:10111000E816F90628F490936100809360002EC0D1
:101120008E010E5F1F4FC8010E941B028C899D8992
:10113000892B21F0CE010C960E941B028E89909182
:10114000CA05981710F48093CA0590E09C01220FFD
:10115000331F220F331F220F331F820F931FB8013B
:1011600089509A4F0E94C9019E89E0912D06F09105
:101170002E068689981708F0AECFB1CFE0912D06E4
:10118000F0912E06868990E0FC01EE0FFF1FEE0F16
:10119000FF1FEE0FFF1F8E0F9F1FFC01E950FA4F3C
:1011A0008081823040F409C08091C8058F5F8093B0
:1011B000C805D12C02C0DD24D3948091C7058823B3
:1011C00011F0DD24D3948D2DDF91CF911F910F91DC
:1011D000FF90EF90DF9008950F931F93CF93DF93CD
:1011E0000FB6F8940F928091C40581508093C40586
:1011F0008091C405811157C08091CD05811132C005
:1012000055C0E091DD05F091DE05C681D781CE01A4
:101210000C960E941B028E010E5F1F4FC8010E9498
:101220001B028E899091CA05981710F48093CA0505
:1012300090E09C01220F331F220F331F220F331F18
:10124000820F931FB80189509A4F0E94C9019E894D
:10125000E0912D06F0912E068689981718F081E00E
:101260008093C7058091D8058111CBCF8091C805A7
:1012700081110DC010C00E943008882319F081E050
:101280008093C7058091C80581508093C8058091DF
:10129000C8058111F0CF8091C705813031F40E94DB
:1012A000E50281E003C080E001C080E00F900FBE46
:1012B000DF91CF911F910F910895CF93DF93EC01B0
:1012C000892BA9F00E942A088091CB059091CC052A
:1012D000C80FD91F80912D0690912E0602960E946C
:1012E0001B02CE010E9410070E94EC0801C080E0A2
:1012F000811102C00E94E502DF91CF910895CF9342
:10130000DF9324C00E942A08C091CF050E94EC08F8
:10131000CC23E1F00FB6F8940F92E091D405F09150
:10132000D505C681D781CE0102960E941B0280910D
:10133000CD0581508093CD058091CE05815080935D
:10134000CE050F900FBECE010E949B068091CE0568
:101350008111D8CFDF91CF9108950E947F098091AC
:10136000F7058230D0F30E94E502F7CF8091C405E3
:10137000882321F081E08093C70508951092C70566
:1013800005C08091CA0581508093CA058091CA0525
:1013900090E0FC01EE0FFF1FEE0FFF1FEE0FFF1F8F
:1013A0008E0F9F1FFC01E950FA4F8081882349F37B
:1013B0008091CA0590E09C01220F331F220F331F3A
:1013C000220F331F280F391FD901A950BA4F119688
:1013D000ED91FC9112970280F381E02D1296FC931F
:1013E000EE93119726503A4FE217F30729F4228122
:1013F0003381FD0132832183FC01EE0FFF1FEE0FCD
:10140000FF1FEE0FFF1F8E0F9F1FFC01E950FA4FC9
:101410000180F281E02D8681978190932E06809342
:101420002D060895CF93DF93EB0160912D06709107
:101430002E06645F7F4F0E94EA0180912D069091F5
:101440002E0602960E941B028091CB059091CC053E
:101450008C0F9D1F0E941007DF91CF910895CF93AD
:10146000DF93EA01E0912D06F0912E0670687587F2
:10147000648760912D0670912E06645F7F4F0E94F5
:10148000C90180912D0690912E0602960E941B02A2
:101490008091CB059091CC058C0F9D1F0E94100769
:1014A000DF91CF9108950F931F93CF93DF93DC01CA
:1014B0001596ED91FC911697C681D7818E01045F38
:1014C0001F4FC8010E941B028091C40581111CC0DE
:1014D0000A501109C8010E941B028E899091CA0509
:1014E000981710F48093CA0590E09C01220F331FD7
:1014F000220F331F220F331F820F931FB801895011
:101500009A4F0E94C90105C0B80188ED95E00E947C
:10151000C9019E89E0912D06F0912E0686898917D2
:1015200020F481E08093C70501C080E0DF91CF9176
:101530001F910F9108950F931F93CF93DF937068BE
:10154000FC0171836083C681D7810E941B028E01DA
:101550000E5F1F4FC8010E941B028E899091CA0521
:10156000981710F48093CA0590E09C01220F331F56
:10157000220F331F220F331F820F931FB801895090
:101580009A4F0E94C9019E89E0912D06F0912E0686
:101590008689891720F481E08093C70501C080E027
:1015A000DF91CF911F910F9108952091C605FC0105
:1015B00020832091CB053091CC053283218308957F
:1015C000CF93DF93FC010FB6F8940F924091CB05B7
:1015D0005091CC0590818091C605981729F08181A2
:1015E000928148175907B0F421813281CA01821BC8
:1015F000930BEB01A881B9818A179B0768F4CF018F
:10160000241B350B2A0F3B1F398328830E94D50AE0
:1016100080E003C081E001C081E00F900FBEDF9148
:10162000CF91089581E08093C70508950F931F938C
:10163000CF93DF93FC01892B09F455C02689A09133
:101640002D06B0912E0656968C91281708F04BC0A7
:1016500084859585992364F0A0912D06B0912E067E
:1016600056963C9186E090E0831B9109958784878C
:101670008285938530E0A901440F551F440F551F03
:10168000440F551F240F351F29503A4F82179307D7
:1016900019F58F01EF012296CE010E941B02E09105
:1016A0002D06F0912E068689F801868B9091CA0549
:1016B000981710F48093CA0590E09C01220F331F05
:1016C000220F331F220F331F820F931FBE01895039
:1016D0009A4F0E94C90107C0A0912D06B0912E0615
:1016E00056968C91868BDF91CF911F910F91089523
:1016F0000F931F93CF93DF93FC01892B79F183A97B
:10170000815083AB268992A9291751F181112AC0F2
:10171000EF018F010E5F1F4FC8010E941B028AA9B3
:101720008E8B26E030E0281B31093D872C87909175
:10173000CA05981710F48093CA0590E09C01220F07
:10174000331F220F331F220F331F820F931FB80145
:1017500089509A4F0E94C90181E005C080E003C012
:1017600080E001C080E0DF91CF911F910F9108953B
:10177000E0912D06F0912E0684859585E0912D0649
:10178000F0912E06A0912D06B0912E0656964C9102
:1017900026E030E0241B31093587248708958091A5
:1017A0002D0690912E06892B39F0E0912D06F091AF
:1017B0002E0683A98F5F83AB80912D0690912E0614
:1017C0000895CF93DF93C82F40E063E080E00E944C
:1017D00016128FEC97E00197F1F700C0000041E08E
:1017E00062E080E00E9416128FEC97E00197F1F71B
:1017F00000C00000DC2FD295DF704D2F417060E0FB
:1018000081E00E941612D1FB442740F961E081E09B
:101810000E941612D2FB442740F962E081E00E9448
:1018200016124C2F441F4427441F64E081E00E949D
:1018300016128FEC97E00197F1F700C0000040E02E
:1018400062E080E00E9416128FEC97E00197F1F7BA
:1018500000C0000041E062E080E00E9416128FECC0
:1018600097E00197F1F700C00000DC2FDF704C2FEC
:10187000417060E081E00E941612D1FB442740F9DC
:1018800061E081E00E941612D2FB442740F962E039
:1018900081E00E9416124D2F46954695469564E0CC
:1018A00081E00E9416128FEC97E00197F1F700C0DB
:1018B000000040E062E080E00E9416128FEC97E0AA
:1018C0000197F1F700C00000DF91CF91089542E049
:1018D00063E080E00E94401142E062E080E00E940C
:1018E000401142E060E081E00E94401142E061E08E
:1018F00081E00E94401142E062E081E00E944011DC
:1019000042E064E081E00E94401182E00E94E10B2D
:1019100088E20E94E10B8CE00E94E10B81E00E94D2
:10192000E10B0895CF93DF93C82F41E063E080E09F
:101930000E9416128FEC97E00197F1F700C00000AB
:1019400041E062E080E00E9416128FEC97E0019780
:10195000F1F700C00000DC2FD295DF704D2F4170F1
:1019600060E081E00E941612D1FB442740F961E05B
:1019700081E00E941612D2FB442740F962E081E028
:101980000E9416124C2F441F4427441F64E081E03C
:101990000E9416128FEC97E00197F1F700C000004B
:1019A00040E062E080E00E9416128FEC97E0019721
:1019B000F1F700C0000041E062E080E00E941612F2
:1019C0008FEC97E00197F1F700C00000DC2FDF708B
:1019D0004C2F417060E081E00E941612D1FB442739
:1019E00040F961E081E00E941612D2FB442740F9E1
:1019F00062E081E00E9416124D2F4695469546956D
:101A000064E081E00E9416128FEC97E00197F1F7F5
:101A100000C0000040E062E080E00E9416128FECFF
:101A200097E00197F1F700C0000080912F068F5FCB
:101A300080932F06843159F4809130068F5F809314
:101A4000300610922F06843111F410923006DF9187
:101A5000CF9108950F931F93CF938C01C0E003C0E3
:101A60000E94920CCF5FF801EC0FF11D8081811173
:101A7000F7CFCF911F910F910895813061F028F039
:101A8000823089F08330B9F01DC060932F06109228
:101A90003006962F17C090E4960F60932F0681E0D2
:101AA000809330060FC094E1960F60932F0682E07A
:101AB0008093300607C094E5960F60932F0683E06D
:101AC00080933006892F80680E94E10B0895CF93A0
:101AD000DF93EC01862F642F0E943D0DCE010E9402
:101AE0002A0DDF91CF91089510922F0610923006A3
:101AF00081E00E94E10B0895CF93DF93CDB7DEB76D
:101B000061970FB6F894DEBF0FBECDBFDC01CB01ED
:101B10004AE0BE016F5F7F4F0E94BC15CE01019667
:101B20000E942A0D61960FB6F894DEBF0FBECDBF9E
:101B3000DF91CF91089542E00E9440110895411134
:101B400003C00E9416120895413011F40E9416122B
:101B500008958F929F92AF92BF92CF92DF92EF92B1
:101B6000FF9281E00E943611BC0180E090E00E946B
:101B700033149B01AC0160E070EC8FE794E40E94A9
:101B8000921320E030E040E85FE30E94251320E05C
:101B900030E44CE156E40E9411150E94C9146B0117
:101BA0007C0126ED34E649E759E30E9411152BEC40
:101BB00038E444E85AE30E9426134B015C012CE60A
:101BC0003FEC48E554E3C701B6010E9411159B01A3
:101BD000AC01C701B6010E9411159B01AC01C70100
:101BE000B6010E9411159B01AC01C501B4010E9410
:101BF00026139B01AC0160E070E080E89FE30E9447
:101C0000921323E333E948E853E40E9425130E942A
:101C10000414862FFF90EF90DF90CF90BF90AF908D
:101C20009F908F9008950E94A90D80933D069091FA
:101C30006300891748F061E070E08091330690916D
:101C400034060E941D0108C061E070E080913306F7
:101C5000909134060E940E0120E044E650E060E0DE
:101C600070E080913B0690913C060E949A0581307D
:101C7000F9F46AE080E00E943D0D60913D0670E05D
:101C800080E090E00E947C0D80913D06843620F437
:101C900086EE90E00E942A0D20E040E050E060E0F7
:101CA00070E080913B0690913C060E94DC0404C0E9
:101CB00084E790E00E94081388EC90E00E945D09A0
:101CC000B2CFCF93DF9300D000D01F92CDB7DEB755
:101CD00019821A821B821C821D8210E000E004C05F
:101CE00011E002C010E000E0CE0105960E941C1336
:101CF0008823D1F38D81873499F3113069F490ED05
:101D0000980F9A3048F4E1E0F0E0EC0FFD1FE00F8F
:101D1000F11D80830F5FE8CF1130C1F48B34B1F433
:101D2000E1E0F0E0EC0FFD1FE00FF11D108220E07C
:101D30004FEF5FEFBE016F5F7F4F8091370690914D
:101D400038060E94DC0410E000E0CECF113011F420
:101D5000833441F2843569F420E04FEF5FEFBE0138
:101D60006B5F7F4F80913506909136060E94DC04B0
:101D7000BBCF843409F0B8CF20E04FEF5FEFBE0156
:101D80006B5F7F4F80913506909136060E94DC0490
:101D9000ABCFCF93DF9300D000D01F92CDB7DEB78B
:101DA00019821A821B821C8220E044E650E0BE01A8
:101DB0006F5F7F4F80913706909138060E949A0599
:101DC000882309F448C089818053880F982F990F80
:101DD000990F890F9A81890F8053809363009091A6
:101DE0003D06981748F061E070E0809133069091CD
:101DF00034060E941D0108C061E070E08091330646
:101E0000909134060E940E0120E044E650E060E02C
:101E100070E080913B0690913C060E949A058130CB
:101E2000B1F440E161E0CE0101960E94670D8BE8BC
:101E300090E00E94081320E040E050E060E070E095
:101E400080913B0690913C060E94DC0404C08CE922
:101E500090E00E94081320E044E650E0BE016B5F72
:101E60007F4F80913506909136060E949A0588230F
:101E700009F49ACF8D81843451F51092620062E0AA
:101E800070E080913306909134060E940E0120E0AC
:101E900040E951E060E070E080913B0690913C06A3
:101EA0000E949A05813009F07FCF4DE062E084EB1B
:101EB00090E00E94670D20E040E050E060E070E0BC
:101EC00080913B0690913C060E94DC046DCF8435E6
:101ED00009F06ACF80916200813051F51092620062
:101EE00062E070E080913306909134060E940E010A
:101EF00020E040E951E060E070E080913B06909185
:101F00003C060E949A05813009F04ECF4DE062E018
:101F100084EB90E00E94670D20E040E050E060E03C
:101F200070E080913B0690913C060E94DC043CCF1F
:101F300081113ACF81E08093620062E070E080918D
:101F40003306909134060E941D0120E040E951E0E3
:101F500060E070E080913B0690913C060E949A05FB
:101F6000813009F021CF4DE062E082E790E00E94ED
:101F7000670D20E040E050E060E070E080913B06BB
:101F800090913C060E94DC040FCF0E94670C0E94D7
:101F9000BA120E94D51060E082E00E949B0D089565
:101FA0000E94740D40E060E086EB90E00E94670DB7
:101FB0000E94A90D80933D066AE080E00E943D0DDD
:101FC00060913D0670E080E090E00E947C0D40E072
:101FD00061E085EC90E00E94670D60E181E00E9485
:101FE0003D0D6091630070E080E090E00E947C0D08
:101FF00040E062E08AED90E00E94670D6DE082E0D3
:102000000E943D0D80916200813021F485E40E94A0
:10201000920C089584E40E94920C0895AF92BF92AE
:10202000CF92DF92EF92FF920F930E94C50F0E9412
:10203000D00F81E00E946E0590933C0680933B0692
:1020400040E063E083E00E94AE0490933806809302
:10205000370640E061E083E00E94AE0490933606CC
:10206000809335060E94890090933406809333064E
:10207000A12CB12CC12CD12CE12CF12C04E020E0BE
:1020800030E048EC50E068EE70E087E890E10E94B4
:10209000470703E02DE336E044E650E069EF70E0E7
:1020A00083E19EE00E94470702E020E030E044E642
:1020B00050E06DE071E089EC9EE00E94470701E08E
:1020C00020E030E044E650E064E271E081E69EE02A
:1020D0000E94470762E070E08091330690913406D9
:1020E0000E941D010E94FF0780E090E00F91FF9089
:1020F000EF90DF90CF90BF90AF9008950E94740D45
:1021000044E061E086E391E00E94670D0895C0E03D
:1021100004E610E021E040E063E070E080913306E7
:10212000909134060E949C00909332068093310671
:10213000837099270397B1F420E048EE53E060E004
:1021400070E080913B0690913C060E949A05813098
:10215000F1F441E060E082E00E949F0D0E947E1059
:10216000C1E015C0C13099F440E060E082E00E9417
:102170009F0D20E040E050E060E070E080913B0681
:1021800090913C060E94DC040E94D00FC0E084E6DF
:1021900090E00E945D09BCCF877097B1907E892B3B
:1021A00087B986B1806486B9089527B1E4E6F0E086
:1021B000918130E4939FC0011124922F9F73892B4A
:1021C00087B98281811104C087B18F7D87B905C02D
:1021D000813019F487B1806287B986B1806886B989
:1021E000809164008823C9F0813039F486B180621F
:1021F00086B980B78F7080BF10C0823071F486B10D
:10220000806286B920B79091680030E2939FC00148
:102210001124922F9F70892B80BF96B18091670007
:10222000987F8770892B86B986B1877F86B9089594
:1022300080916600811108C024B185B1837090E05F
:10224000982F8827822B0895813069F424B1229534
:1022500026952695237085B190E0880F991F880FE9
:10226000991F822B089580E090E008950E94CC1081
:10227000349BFECF0E94181126B1206126B9089523
:10228000843008F0D2C0683008F0CFC08130D1F17E
:1022900038F0823009F468C0833009F496C008959C
:1022A000411110C02AB381E090E002C0880F991F4D
:1022B0006A95E2F78095922F98239ABB9BB3892366
:1022C0008BBB0895413081F42AB381E090E002C0D5
:1022D000880F991F6A95E2F7982F909592239ABBE1
:1022E0009BB3892B8BBB0895423009F09EC02AB363
:1022F00081E090E002C0880F991F6A95E2F7822B77
:102300008ABB0895411110C027B381E090E002C05C
:10231000880F991F6A95E2F78095922F982397BBB3
:1023200098B3892388BB0895413081F427B381E0B5
:1023300090E002C0880F991F6A95E2F7982F909558
:10234000922397BB98B3892B88BB0895423009F03C
:102350006CC027B381E090E002C0880F991F6A9596
:10236000E2F7822B87BB0895411110C024B381E0AE
:1023700090E002C0880F991F6A95E2F78095922F2E
:10238000982394BB95B3892385BB0895413081F48C
:1023900024B381E090E002C0880F991F6A95E2F7AC
:1023A000982F9095922394BB95B3892B85BB089564
:1023B0004230D9F524B381E090E002C0880F991F24
:1023C0006A95E2F7822B84BB0895411110C021B3B6
:1023D00081E090E002C0880F991F6A95E2F780952E
:1023E000922F982391BB92B3892382BB08954130E9
:1023F00081F421B381E090E002C0880F991F6A95B3
:10240000E2F7982F9095922391BB92B3892B82BBD0
:102410000895423051F421B381E090E002C0880F6A
:10242000991F6A95E2F7822B81BB0895843008F0EA
:1024300077C0683008F074C0813011F130F082301C
:10244000D1F1833009F452C00895413059F42BB3CF
:1024500081E090E002C0880F991F6A95E2F7822B15
:102460008BBB089541115CC02BB381E090E002C0AA
:10247000880F991F6A95E2F7809582238BBB089598
:10248000413059F428B381E090E002C0880F991FD1
:102490006A95E2F7822B88BB0895411141C028B3A9
:1024A00081E090E002C0880F991F6A95E2F780955D
:1024B000822388BB0895413059F425B381E090E030
:1024C00002C0880F991F6A95E2F7822B85BB089599
:1024D000411126C025B381E090E002C0880F991F0A
:1024E0006A95E2F78095822385BB0895413059F4BF
:1024F00022B381E090E002C0880F991F6A95E2F74D
:10250000822B82BB089541110BC022B381E090E081
:1025100002C0880F991F6A95E2F78095822382BBDB
:1025200008951F920F920FB60F9211242F933F938D
:102530004F935F936F937F938F939F93AF93BF93CB
:10254000EF93FF93E0913906F0913A06309709F046
:102550000995FF91EF91BF91AF919F918F917F91DD
:102560006F915F914F913F912F910F900FBE0F9000
:102570001F90189580916C00811104C08AB1886009
:102580008AB90EC0813021F48AB180618AB908C04D
:10259000823031F48AB180618AB98AB188608AB99F
:1025A000E9E6F0E0418180E1489FA0011124928199
:1025B000292F30E0220F331F220F331F220F331F2A
:1025C0009081892F90E0880F991F4068242B822BDF
:1025D00080BD2AB190819470892F90E0880F991F57
:1025E000880F991F922F9B7F892B8AB9858180BD87
:1025F000848189B908955D9BFECF90FF04C02AB104
:1026000021602AB903C02AB12E7F2AB98CB9089556
:102610000F931F93CF938C01C0E004C090E00E9401
:10262000FB12CF5FF801EC0FF11D80818111F6CF15
:10263000CF911F910F9108955F9B05C02CB1FC01B4
:10264000208381E0089580E008955058BB27AA2791
:102650000E943D130C9487140E94791438F00E9454
:10266000801420F039F49F3F19F426F40C9476146A
:102670000EF4E095E7FB0C947014E92F0E94981477
:1026800058F3BA17620773078407950720F079F4A7
:10269000A6F50C94BA140EF4E0950B2EBA2FA02DCB
:1026A0000B01B90190010C01CA01A0011124FF27FF
:1026B000591B99F0593F50F4503E68F11A16F040FA
:1026C000A22F232F342F4427585FF3CF46953795F9
:1026D0002795A795F0405395C9F77EF41F16BA0BBE
:1026E000620B730B840BBAF09150A1F0FF0FBB1F6C
:1026F000661F771F881FC2F70EC0BA0F621F731FB5
:10270000841F48F4879577956795B795F7959E3F11
:1027100008F0B0CF9395880F08F09927EE0F9795A2
:10272000879508950E94A6130C9487140E94801424
:1027300058F00E94791440F029F45F3F29F00C947E
:10274000701451110C94BB140C9476140E949814BC
:1027500068F39923B1F3552391F3951B550BBB27D0
:10276000AA2762177307840738F09F5F5F4F220F15
:10277000331F441FAA1FA9F335D00E2E3AF0E0E80C
:1027800032D091505040E695001CCAF72BD0FE2F56
:1027900029D0660F771F881FBB1F261737074807EA
:1027A000AB07B0E809F0BB0B802DBF01FF279358A2
:1027B0005F4F3AF09E3F510578F00C9470140C94E2
:1027C000BB145F3FE4F3983ED4F386957795679505
:1027D000B795F7959F5FC9F7880F911D96958795D7
:1027E00097F90895E1E0660F771F881FBB1F6217F6
:1027F00073078407BA0720F0621B730B840BBA0BB4
:10280000EE1F88F7E09508950E94A01488F09F5766
:1028100098F0B92F9927B751B0F0E1F0660F771F04
:10282000881F991F1AF0BA95C9F714C0B13091F0FA
:102830000E94BA14B1E008950C94BA14672F782F4F
:102840008827B85F39F0B93FCCF3869577956795BF
:10285000B395D9F73EF490958095709561957F4F2B
:102860008F4F9F4F0895E89409C097FB3EF49095D1
:102870008095709561957F4F8F4F9F4F9923A9F059
:10288000F92F96E9BB279395F695879577956795E8
:10289000B795F111F8CFFAF4BB0F11F460FF1BC02C
:1028A0006F5F7F4F8F4F9F4F16C0882311F096E9BF
:1028B00011C0772321F09EE8872F762F05C066236D
:1028C00071F096E8862F70E060E02AF09A95660F26
:1028D000771F881FDAF7880F9695879597F90895DF
:1028E00097F99F6780E870E060E008959FEF80ECC3
:1028F000089500240A941616170618060906089566
:1029000000240A9412161306140605060895092ECB
:102910000394000C11F4882352F0BB0F40F4BF2B3A
:1029200011F460FF04C06F5F7F4F8F4F9F4F08957A
:1029300057FD9058440F551F59F05F3F71F0479570
:10294000880F97FB991F61F09F3F79F08795089555
:10295000121613061406551FF2CF4695F1DF08C074
:10296000161617061806991FF1CF86957105610591
:1029700008940895E894BB2766277727CB0197F939
:10298000089516F00C947E150C94761468940C94AB
:1029900070140E94A014A8F39923C1F3AEF3DF933F
:1029A000CF931F930F93FF92C92FDD2788232AF01F
:1029B0002197660F771F881FDAF720E030E040E8A4
:1029C0005FEB9FE3883920F0803E38F021968F77C7
:1029D0000E942613E4E5F0E004C00E942613E1E81B
:1029E000F0E00E948C158B01BE01EC01FB2E6F57AD
:1029F00071097595771F880B990B0E94351428E192
:102A000032E741E35FE30E942415AF2D9801AE0148
:102A1000FF900F911F91CF91DF910E943D130C9475
:102A200087140E9424150C9487140E94791438F09E
:102A30000E94801420F0952311F00C9470140C94D3
:102A4000761411240C94BB140E94981470F3959F73
:102A5000C1F3950F50E0551F629FF001729FBB2795
:102A6000F00DB11D639FAA27F00DB11DAA1F649F31
:102A70006627B00DA11D661F829F2227B00DA11DE4
:102A8000621F739FB00DA11D621F839FA00D611D6A
:102A9000221F749F3327A00D611D231F849F600D8B
:102AA000211D822F762F6A2F11249F5750409AF0B4
:102AB000F1F088234AF0EE0FFF1FBB1F661F771F40
:102AC000881F91505040A9F79E3F510580F00C940B
:102AD00070140C94BB145F3FE4F3983ED4F38695D6
:102AE00077956795B795F795E7959F5FC1F7FE2BAB
:102AF000880F911D9695879597F908959F3F31F01E
:102B0000915020F4879577956795B795880F911D1B
:102B10009695879597F90895DF93CF931F930F9319
:102B2000FF92EF92DF927B018C01689406C0DA2E4F
:102B3000EF010E942415FE01E894A591259135919D
:102B400045915591A6F3EF010E943D13FE019701B7
:102B5000A801DA9469F7DF90EF90FF900F911F9131
:102B6000CF91DF910895FB01DC0102C001900D922D
:102B700041505040D8F70895BB274A3031F499238B
:102B800022F4BDE2909581959F4F0C94C815BB2708
:102B9000FB015527AA27880F991FAA1FA41710F019
:102BA000A41B83955051B9F7A05DAA3308F0A95D25
:102BB000A193009779F7B111B1931192CB010C94C5
:102BC000E115DC01FC01672F71917723E1F7329762
:102BD00004C07C916D9370836291AE17BF07C8F3F8
:062BE0000895F894FFCFF8
:102BE600FFFF015000010006000300000233004908
:102BF600444C4500414443204661696C6564207538
:102C06007064617465206C63640D0054687265209D
:102C1600757064617465206C63640D007468726518
:102C2600204661696C656420757064617465206C0A
:102C360063640D0044004375722054656D703A203C
:102C460020202043005468726573686F6C642054BA
:102C5600656D703A202020204300416C61726D2022
:102C660053746174653A2000456D657267656E63DD
:102C7600795F6E6F726D616C00557064617465206A
:102C860043757272656E742054656D70007570645C
:102C9600617465205468726573686F6C645F7374E1
:102CA60061746500526563696576652055415254C5
:102CB600204D65737300212120414C41524D202146
:022CC6002100EB
:00000001FF
