S018000046697265416C61726D5F53797374656D2E73726563B5
S11300000C9457000C9474000C9474000C947400B9
S11300100C9474000C9474000C9474000C949A0363
S11300200C9474000C9474000C9474000C9474007C
S11300300C9474000C94EF120C9474000C947400DF
S11300400C9474000C9474000C9474000C9474005C
S11300500C94740008000000BE922449123EABAA1E
S1130060AA2ABECDCCCC4C3E00000080BEABAAAACE
S1130070AA3E00000000BF000000803F0000000016
S113008000084178D3BB4387D1133D190E3CC3BD4F
S11300904282AD2B3E68EC8276BED98FE1A93E4CFC
S11300A080EFFFBE01C4FF7F3F0000000000112469
S11300B01FBECFE5D8E0DEBFCDBF11E0A0E6B0E0C3
S11300C0E2EAFCE202C005900D92A634B107D9F72A
S11300D026E0A6E4B1E001C01D92A234B207E1F724
S11300E00E94FE0F0C944F160C940000411106C0A0
S11300F068237923672B49F480E0089586239723A6
S11301006817790721F080E0089581E0089581E07F
S11301100895CF93DF938BE090E00E948101EC017E
S1130120009731F0FC0111921192CF010E94B701A6
S1130130CE01DF91CF910895AF92BF92CF92DF921B
S1130140EF92FF920F931F93CF93DF937C015B0198
S1130150C42ED22E0E942A08F701C081D1814D2DD0
S1130160B501CE010E947600882369F0CC2009F104
S1130170C501809590958C239D23F70191838083FD
S113018000E010E018C001151105A9F0C11003C06A
S113019060E070E002C060E071E0D11074606A2930
S11301A07B29A801C70102960E942F0AC0E0D0E073
S11301B002C000E010E00E94EC08012B19F181114B
S11301C002C00E94E5020E94B80BEC0191FD19C027
S11301D00FB6F8940F92F701C081D1814D2DB5016E
S11301E0CE010E947600882351F0CC2041F0B50165
S11301F0609570956C237D23F701718360830F9064
S11302000FBEDD27CE01DF91CF911F910F91FF909B
S1130210EF90DF90CF90BF90AF900895FC010FB6A0
S1130220F8940F9280819181609570956823792369
S1130230718360830F900FBE0895CF92DF92EF9287
S1130240FF920F931F93CF93DF937C018B01EC01FB
S113025025960E942A08D7011796ED91FC911897CC
S11302608D919C911197082B192B0D931C9300E0F1
S113027010E02DC0C280D380808191819C013327FE
S113028092FD09C0D7014D915C9142235323452B24
S113029061F440E00DC0D7014D915C91422353239A
S11302A02417350721F040E003C041E001C041E0DC
S11302B0442359F090FF02C0022B132BD7016D91F8
S11302C07C917260CF010E949B0AEC2DFD2DEC17EE
S11302D0FD0781F600951095F7018081918108232F
S11302E01923118300830E94EC08D7018D919C91FE
S11302F0DF91CF911F910F91FF90EF90DF90CF90FE
S11303000895CF93DF93EC010E942A08809146015F
S113031090914701892B31F48BE491E0909347014C
S1130320809346012091480130914901C9018C0F05
S11303309D1F8D3744E0940770F42817390770F433
S1130340C0914601D0914701C20FD31F9093490138
S11303508093480105C0C0E0D0E002C0C0E0D0E016
S11303600E94EC08CE01DF91CF9108950895FC011D
S11303700396928381832FEF3FEF34832383968305
S113038085839087878310820895FC0111861086E7
S11303900895CF93DF939C01FB01DC011196CD916D
S11303A0DC911297D383C2838C819D81958384834E
S11303B08C819D81DC0113967C936E9312977D83CF
S11303C06C8331872087F90180818F5F8083DF917F
S11303D0CF910895CF93DF93EB01488159814F3F2B
S11303E02FEF520721F4FC01A781B0850DC0DC0179
S11303F0139601C0DF011296ED91FC9113972081B1
S1130400318142175307B0F71296ED91FC9113977F
S1130410FB83EA83D583C483BD83AC831396DC93C7
S1130420CE93129799878887FC0120812F5F2083C0
S1130430DF91CF910895CF93DF93FC01A085B1851F
S1130440C281D381848195819D838C83C481D5812C
S1130450828193819B838A8311968D919C911297BB
S1130460E817F90731F48481958112969C938E9351
S11304701197118610868C9181508C93DF91CF91C6
S113048008951BBC8CE78ABD8BE08EBD89B7806163
S113049089BF089531E1FC013083319722E2208342
S11304A03197A3E3A08331976083319770833197A9
S11304B01082319760E8608331971082319762E04F
S11304C06083319763E06083319764E060833197A0
S11304D065E06083319766E06083319767E060830D
S11304E0319768E06083319769E06083319760E118
S11304F0608331973083319732E13083319733E130
S11305003083319734E13083319735E1308331974B
S113051036E13083319737E13083319738E13083E6
S1130520319739E13083319730E23083319731E2CA
S1130530308331972083319723E22083319740839E
S113054031975083319726E22083319727E2208325
S1130550319728E22083319729E22083319720E3E1
S11305602083319721E32083869708950E944102D6
S1130570A0913106B0913206CD91CDBFDD91DEBFA1
S1130580FF91EF91DF91CF91BF91AF919F918F91A7
S11305907F916F915F914F913F912F911F910F9197
S11305A0FF90EF90DF90CF90BF90AF909F908F908F
S11305B07F906F905F904F903F902F901F900F907F
S11305C00FBE0F90089581E008950F920FB6F8942E
S11305D00F921F9211242F923F924F925F926F922B
S11305E07F928F929F92AF92BF92CF92DF92EF92BF
S11305F0FF920F931F932F933F934F935F936F93A8
S11306007F938F939F93AF93BF93CF93DF93EF9396
S1130610FF93A0913106B09132060DB60D920EB63D
S11306200D920E94B609A0913106B0913206CD9187
S1130630CDBFDD91DEBFFF91EF91DF91CF91BF91EF
S1130640AF919F918F917F916F915F914F913F9166
S11306502F911F910F91FF90EF90DF90CF90BF905B
S1130660AF909F908F907F906F905F904F903F904E
S11306702F901F900F900FBE0F9008950F920FB6FA
S1130680F8940F921F9211242F923F924F925F92EF
S11306906F927F928F929F92AF92BF92CF92DF928E
S11306A0EF92FF920F931F932F933F934F935F9378
S11306B06F937F938F939F93AF93BF93CF93DF9366
S11306C0EF93FF93A0913106B09132060DB60D92CF
S11306D00EB60D920E94300881110E94B609A091B5
S11306E03106B0913206CD91CDBFDD91DEBFFF91D1
S11306F0EF91DF91CF91BF91AF919F918F917F91B6
S11307006F915F914F913F912F911F910F91FF90A6
S1130710EF90DF90CF90BF90AF909F908F907F909D
S11307206F905F904F903F902F901F900F900FBE4F
S11307300F9008950E943E0318950FB6F8940F92F7
S1130740FC01828D811102C081E001C080E00F9024
S11307500FBE08950FB6F8940F92FC01228D838D7D
S1130760281302C081E001C080E00F900FBE0895FD
S11307701F93CF93DF93EC01142F4C8D41110CC0C8
S113078088819981892B09F045C08A819B810E94C7
S1130790780B1B821A8245C0111117C050E08C815E
S11307A09D810E9411162C8D8C819D81820F911D3B
S11307B09D838C832A813B818217930768F188810A
S11307C099819D838C8380E02CC050E08E819F8131
S11307D00E9411168C8D90E09195819591092E813E
S11307E03F81280F391F3F832E8348815981241765
S11307F0350730F42A813B81820F931F9F838E83B8
S1130800123061F48A8D882359F08A8D81508A8F41
S113081080E007C080E005C080E003C080E001C044
S113082080E09A8D9F5F9A8FDF91CF911F910895F9
S1130830FC01448D4423A9F050E026813781240F24
S1130840351F37832683828193812817390720F047
S11308508081918197838683CB01668177810E9411
S113086011160895CF93DF93EC010FB6F8940F920D
S11308700DC08989882369F0CE0141960E94530AEC
S113088081110E94120B8E8D81508E8F8E8D1816C1
S113089084F38FEF8E8F0F900FBE0FB6F8940F92E4
S11308A00DC08885882369F0CE0108960E94530AFA
S11308B081110E94120B8D8D81508D8F8D8D181694
S11308C084F38FEF8D8F0F900FBEDF91CF9108953A
S11308D0CF93DF93EC010FB6F8940F92E881F9817E
S11308E08B8D90E02C8D30E0829FA001839F500D72
S11308F0929F500D11244E0F5F1F5B834A831A8E03
S1130900FD83EC830197289FA001299F500D389FF8
S1130910500D1124CF01840F951F9F838E838FEF79
S11309208D8F8E8F61110CC08885882389F0CE014C
S113093008960E94530A813059F40E94E50208C0C7
S1130940CE0108960E94B701CE0141960E94B701DC
S11309500F900FBE81E0DF91CF9108950F931F9305
S1130960CF93DF93882301F1062F182F8FE190E0B6
S11309700E948101EC01892BC9F0109FC001112450
S113098001960E94810199838883892B39F01B8FFA
S11309900C8F61E0CE010E94680408C0CE010E9461
S11309A0B601C0E0D0E002C0C0E0D0E0CE01DF91EB
S11309B0CF911F910F910895CF92DF92EF92FF9202
S11309C00F931F93CF93DF9300D000D01F92CDB726
S11309D0DEB78C017B015D834C83C22ED12C0FB614
S11309E0F8940F92F801928D838D981718F0F2E025
S11309F0CF1219C04C2DB701C8010E94B803F801E9
S1130A009189992349F0C80141960E94530A813083
S1130A1031F40E94E50203C081110E94E5020F90A7
S1130A200FBE81E04DC08C819D81892B21F40F90F4
S1130A300FBE80E045C0D11006C0CE0101960E94D1
S1130A40D50ADD24D3940F900FBE0E942A080FB656
S1130A50F8940F92F801858D8F3F09F4158EF801F3
S1130A60868D8F3F09F4168E0F900FBEBE016C5F0A
S1130A707F4FCE0101960E94E00A81111BC0C8017C
S1130A800E94AA03882381F06C817D81C8010896A5
S1130A900E94120AC8010E9432040E94EC088111CB
S1130AA09ECF0E94E5029BCFC8010E9432040E949F
S1130AB0EC0895CFC8010E9432040E94EC0880E043
S1130AC00F900F900F900F900F90DF91CF911F9187
S1130AD00F91FF90EF90DF90CF900895CF93DF9325
S1130AE08FE190E00E948101EC01892BF9F01B82D7
S1130AF01A82198218821D821C821F821E821A8EFB
S1130B0081E08B8F1C8E8FEF8D8F8E8FCE01089698
S1130B100E94B701CE0141960E94B70120E040E057
S1130B2050E060E070E0CE010E94DC04CE01DF9171
S1130B30CF910895AF92BF92CF92DF92EF92FF923E
S1130B400F931F93CF93DF9300D000D01F92CDB7A4
S1130B50DEB78C016B015D834C83E22EF12C0FB662
S1130B60F8940F92F801828D882399F1A680B780BA
S1130B70B601C8010E941804E1101AC0F801828D60
S1130B808150828F80819181892B29F40E94CF0B1F
S1130B90F80193838283F80180858823B1F0C8012A
S1130BA008960E94530A813081F40E94E5020DC028
S1130BB0F801B782A6828189882339F0C801419659
S1130BC00E94530A81110E94E5020F900FBE81E03A
S1130BD05BC08C819D81892B21F40F900FBE80E036
S1130BE053C0F11006C0CE0101960E94D50AFF241D
S1130BF0F3940F900FBE0E942A080FB6F8940F9238
S1130C00F801858D8F3F09F4158EF801868D8F3F8D
S1130C1009F4168E0F900FBEBE016C5F7F4FCE019C
S1130C2001960E94E00A811129C0C8010E949D0317
S1130C308823F1F0F80180819181892B49F40FB662
S1130C40F8940F92828193810E94160B0F900FBE2D
S1130C506C817D81C80141960E94120AC8010E94DC
S1130C6032040E94EC0881117ACF0E94E50277CF0A
S1130C70C8010E9432040E94EC0871CFC8010E948E
S1130C8032040E94EC0880E00F900F900F900F90B8
S1130C900F90DF91CF911F910F91FF90EF90DF9014
S1130CA0CF90BF90AF900895E091E705F091E805EB
S1130CB08081811107C08FEF9FEF90936100809333
S1130CC060000895E091E705F091E8050580F6815C
S1130CD0E02D0680F781E02D82819381909361005D
S1130CE0809360000895EF92FF920F931F93CF9328
S1130CF0DF937C01EB0184E390E00E9481018C018D
S1130D00892B89F0209721F4C7010E94810101C039
S1130D10CE01F801908F878B892B29F4C8010E949A
S1130D20B60100E010E0C801DF91CF911F910F914F
S1130D30FF90EF900895CF93DF93EC018F89988D06
S1130D400E94B601CE010E94B601DF91CF910895B1
S1130D501F93CF93DF93EC01142F20E00FC0822F59
S1130D6090E0FB01E80FF91F3081DE01A80FB91FE5
S1130D7059963C938081882319F02F5F293178F3A9
S1130D8019AA163008F015E01E8B1AAB1BAACE0167
S1130D9002960E94C501CE010C960E94C501D98716
S1130DA0C88786E090E0811B91099D878C87DB8B47
S1130DB0CA8BDF91CF911F910895CF93C0E010C0EB
S1130DC08C2F90E09C01220F331F220F331F220F20
S1130DD0331F820F931F85509A4F0E94B701CF5F34
S1130DE0C63070F382EF95E00E94B70189EE95E07A
S1130DF00E94B7018CED95E00E94B70183ED95E068
S1130E000E94B70182EF95E09093E8058093E7058F
S1130E1089EE95E09093E6058093E505CF910895DA
S1130E20CF93DF93EC01E0913106F0913206938386
S1130E3082838091CF059091D005C817D90768F4B3
S1130E4060913106709132068091E5059091E60536
S1130E506E5F7F4F0E94EA0117C060913106709166
S1130E6032068091E7059091E8056E5F7F4F0E94FE
S1130E70EA018091600090916100C817D90720F4BD
S1130E80D0936100C0936000DF91CF9108952F92B9
S1130E903F924F925F927F928F929F92AF92BF92B6
S1130EA0CF92DF92EF92FF920F931F93CF93DF9332
S1130EB000D000D0CDB7DEB79A8389834B015C8321
S1130EC04B831901702EB6012501CA010E947306D5
S1130ED05C01009709F46AC0FC01C788D08C8B813F
S1130EE09C810197C80ED91E0B811C819201472D4C
S1130EF0B401C5010E94A806A10169817A81C601D5
S1130F000E944A02F50191838083E114F10419F0EF
S1130F10F701B182A0820FB6F8940F928091D105A7
S1130F208F5F8093D1058091310690913206892B91
S1130F3059F4B0923206A09231068091D1058130E5
S1130F4091F40E94DD060FC08091CD0581110BC084
S1130F50E0913106F09132068689781620F0B0923D
S1130F603206A09231068091C9058F5F8093C9052E
S1130F70F50186899091CE05981710F48093CE05DB
S1130F8090E0B5016E5F7F4F9C01220F331F220F4B
S1130F90331F220F331F820F931F85509A4F0E94D5
S1130FA0C9010F900FBEF1E0F98302C08FEF89836E
S1130FB0E981E13069F48091CD05882349F0E0911D
S1130FC03106F09132068689871510F40E94E502F5
S1130FD089810F900F900F900F90DF91CF911F9107
S1130FE00F91FF90EF90DF90CF90BF90AF909F90C4
S1130FF08F907F905F904F903F902F900895AF9285
S1131000BF92CF92DF92EF92FF920F93A12CB12C5B
S1131010C12CD12CE12CF12C00E020E030E045E59E
S113102050E062E770E08DEA99E00E944707813062
S113103049F4F8948093CD051092D0051092CF0511
S11310400E94B6020F91FF90EF90DF90CF90BF9077
S1131050AF9008958091C8058F5F8093C805089567
S1131060DF92EF92FF920F931F93CF93DF938091C0
S1131070C805811199C08091CF059091D005019642
S11310809093D0058093CF05E090CF05F090D005E4
S1131090E114F104B9F48091E7059091E8052091F9
S11310A0E5053091E6053093E8052093E705909334
S11310B0E6058093E5058091CA058F5F8093CA0594
S11310C00E9454068091600090916100E816F90630
S11310D028F4D12C53C0DD24D39401C0D12CE09149
S11310E0E705F091E8058081811107C08FEF9FEF3C
S11310F0909361008093600041C0E091E705F09116
S1131100E8050580F681E02DC681D7818A819B811F
S1131110E816F90628F490936100809360002EC0CD
S11311208E010E5F1F4FC8010E941B028C899D898E
S1131130892B21F0CE010C960E941B028E8990917E
S1131140CE05981710F48093CE0590E09C01220FF1
S1131150331F220F331F220F331F820F931FB80137
S113116085509A4F0E94C9019E89E0913106F09101
S113117032068689981708F0AECFB1CFE0913106D8
S1131180F0913206868990E0FC01EE0FFF1FEE0F0E
S1131190FF1FEE0FFF1F8E0F9F1FFC01E550FA4F3C
S11311A08081823040F409C08091CC058F5F8093A8
S11311B0CC05D12C02C0DD24D3948091CB058823A7
S11311C011F0DD24D3948D2DDF91CF911F910F91D8
S11311D0FF90EF90DF9008950F931F93CF93DF93C9
S11311E00FB6F8940F928091C80581508093C8057A
S11311F08091C805811157C08091D105811132C0F9
S113120055C0E091E105F091E205C681D781CE0198
S11312100C960E941B028E010E5F1F4FC8010E9494
S11312201B028E899091CE05981710F48093CE05F9
S113123090E09C01220F331F220F331F220F331F14
S1131240820F931FB80185509A4F0E94C9019E894D
S1131250E0913106F09132068689981718F081E002
S11312608093CB058091DC058111CBCF8091CC0597
S113127081110DC010C00E943008882319F081E04C
S11312808093CB058091CC0581508093CC058091CF
S1131290CC058111F0CF8091CB05813031F40E94CF
S11312A0E50281E003C080E001C080E00F900FBE42
S11312B0DF91CF911F910F910895CF93DF93EC01AC
S11312C0892BA9F00E942A088091CF059091D0051E
S11312D0C80FD91F809131069091320602960E9460
S11312E01B02CE010E9410070E94EC0801C080E09E
S11312F0811102C00E94E502DF91CF910895CF933E
S1131300DF9324C00E942A08C091D3050E94EC08F0
S1131310CC23E1F00FB6F8940F92E091D805F09148
S1131320D905C681D781CE0102960E941B02809105
S1131330D10581508093D1058091D205815080934D
S1131340D2050F900FBECE010E949B068091D2055C
S11313508111D8CFDF91CF9108950E947F098091A8
S1131360FB058230D0F30E94E502F7CF8091C805D7
S1131370882321F081E08093CB0508951092CB055A
S113138005C08091CE0581508093CE058091CE0515
S113139090E0FC01EE0FFF1FEE0FFF1FEE0FFF1F8B
S11313A08E0F9F1FFC01E550FA4F8081882349F37B
S11313B08091CE0590E09C01220F331F220F331F32
S11313C0220F331F280F391FD901A550BA4F119688
S11313D0ED91FC9112970280F381E02D1296FC931B
S11313E0EE93119722503A4FE217F30729F4228122
S11313F03381FD0132832183FC01EE0FFF1FEE0FC9
S1131400FF1FEE0FFF1F8E0F9F1FFC01E550FA4FC9
S11314100180F281E02D868197819093320680933A
S113142031060895CF93DF93EB01609131067091FB
S11314303206645F7F4F0E94EA01809131069091E9
S1131440320602960E941B028091CF059091D0052E
S11314508C0F9D1F0E941007DF91CF910895CF93A9
S1131460DF93EA01E0913106F091320670687587E6
S113147064876091310670913206645F7F4F0E94E9
S1131480C901809131069091320602960E941B0296
S11314908091CF059091D0058C0F9D1F0E9410075D
S11314A0DF91CF9108950F931F93CF93DF93DC01C6
S11314B01596ED91FC911697C681D7818E01045F34
S11314C01F4FC8010E941B028091C80581111CC0D6
S11314D00A501109C8010E941B028E899091CE0501
S11314E0981710F48093CE0590E09C01220F331FCF
S11314F0220F331F220F331F820F931FB801855011
S11315009A4F0E94C90105C0B8018CED95E00E9474
S1131510C9019E89E0913106F091320686898917C6
S113152020F481E08093CB0501C080E0DF91CF916E
S11315301F910F9108950F931F93CF93DF937068BA
S1131540FC0171836083C681D7810E941B028E01D6
S11315500E5F1F4FC8010E941B028E899091CE0519
S1131560981710F48093CE0590E09C01220F331F4E
S1131570220F331F220F331F820F931FB801855090
S11315809A4F0E94C9019E89E0913106F09132067A
S11315908689891720F481E08093CB0501C080E01F
S11315A0DF91CF911F910F9108952091CA05FC01FD
S11315B020832091CF053091D00532832183089573
S11315C0CF93DF93FC010FB6F8940F924091CF05AF
S11315D05091D00590818091CA05981729F0818196
S11315E0928148175907B0F421813281CA01821BC4
S11315F0930BEB01A881B9818A179B0768F4CF018B
S1131600241B350B2A0F3B1F398328830E94D50ADC
S113161080E003C081E001C081E00F900FBEDF9144
S1131620CF91089581E08093CB0508950F931F9384
S1131630CF93DF93FC01892B09F455C02689A0912F
S11316403106B091320656968C91281708F04BC09B
S113165084859585992364F0A0913106B091320672
S113166056963C9186E090E0831B91099587848788
S11316708285938530E0A901440F551F440F551FFF
S1131680440F551F240F351F25503A4F82179307D7
S113169019F58F01EF012296CE010E941B02E09101
S11316A03106F09132068689F801868B9091CE0539
S11316B0981710F48093CE0590E09C01220F331FFD
S11316C0220F331F220F331F820F931FBE01855039
S11316D09A4F0E94C90107C0A0913106B091320609
S11316E056968C91868BDF91CF911F910F9108951F
S11316F00F931F93CF93DF93FC01892B79F183A977
S1131700815083AB268992A9291751F181112AC0EE
S1131710EF018F010E5F1F4FC8010E941B028AA9AF
S11317208E8B26E030E0281B31093D872C87909171
S1131730CE05981710F48093CE0590E09C01220FFB
S1131740331F220F331F220F331F820F931FB80141
S113175085509A4F0E94C90181E005C080E003C012
S113176080E001C080E0DF91CF911F910F91089537
S1131770E0913106F091320684859585E091310639
S1131780F0913206A0913106B091320656964C91F2
S113179026E030E0241B31093587248708958091A1
S11317A0310690913206892B39F0E0913106F0919F
S11317B0320683A98F5F83AB809131069091320604
S11317C00895CF93DF93C82F40E063E080E00E9448
S11317D0FC118FEC97E00197F1F700C0000041E0A5
S11317E062E080E00E94FC118FEC97E00197F1F732
S11317F000C00000DC2FD295DF704D2F417060E0F7
S113180081E00E94FC11D1FB442740F961E081E0B2
S11318100E94FC11D2FB442740F962E081E00E945F
S1131820FC114C2F441F4427441F64E081E00E94B4
S1131830FC118FEC97E00197F1F700C0000040E045
S113184062E080E00E94FC118FEC97E00197F1F7D1
S113185000C0000041E062E080E00E94FC118FECD7
S113186097E00197F1F700C00000DC2FDF704C2FE8
S1131870417060E081E00E94FC11D1FB442740F9F3
S113188061E081E00E94FC11D2FB442740F962E050
S113189081E00E94FC114D2F46954695469564E0E3
S11318A081E00E94FC118FEC97E00197F1F700C0F2
S11318B0000040E062E080E00E94FC118FEC97E0C1
S11318C00197F1F700C00000DF91CF91089542E045
S11318D063E080E00E94261142E062E080E00E9422
S11318E0261142E060E081E00E94261142E061E0BE
S11318F081E00E94261142E062E081E00E9426110C
S113190042E064E081E00E94261182E00E94E10B43
S113191088E20E94E10B8CE00E94E10B81E00E94CE
S1131920E10B0895CF93DF93C82F41E063E080E09B
S11319300E94FC118FEC97E00197F1F700C00000C2
S113194041E062E080E00E94FC118FEC97E0019797
S1131950F1F700C00000DC2FD295DF704D2F4170ED
S113196060E081E00E94FC11D1FB442740F961E072
S113197081E00E94FC11D2FB442740F962E081E03F
S11319800E94FC114C2F441F4427441F64E081E053
S11319900E94FC118FEC97E00197F1F700C0000062
S11319A040E062E080E00E94FC118FEC97E0019738
S11319B0F1F700C0000041E062E080E00E94FC1109
S11319C08FEC97E00197F1F700C00000DC2FDF7087
S11319D04C2F417060E081E00E94FC11D1FB442750
S11319E040F961E081E00E94FC11D2FB442740F9F8
S11319F062E081E00E94FC114D2F46954695469584
S1131A0064E081E00E94FC118FEC97E00197F1F70C
S1131A1000C0000040E062E080E00E94FC118FEC16
S1131A2097E00197F1F700C00000809133068F5FC3
S1131A3080933306843159F4809134068F5F809308
S1131A40340610923306843111F410923406DF9177
S1131A50CF9108950F931F93CF938C01C0E003C0DF
S1131A600E94920CCF5FF801EC0FF11D808181116F
S1131A70F7CFCF911F910F910895813061F028F035
S1131A80823089F08330B9F01DC060933306109220
S1131A903406962F17C090E4960F6093330681E0C6
S1131AA0809334060FC094E1960F6093330682E06E
S1131AB08093340607C094E5960F6093330683E061
S1131AC080933406892F80680E94E10B0895CF9398
S1131AD0DF93EC01862F642F0E943D0DCE010E94FE
S1131AE02A0DDF91CF910895109233061092340697
S1131AF081E00E94E10B0895CF93DF93CDB7DEB769
S1131B0061970FB6F894DEBF0FBECDBFDC01CB01E9
S1131B104AE0BE016F5F7F4F0E941A16CE01019604
S1131B200E942A0D61960FB6F894DEBF0FBECDBF9A
S1131B30DF91CF9108958F929F92AF92BF92CF92EF
S1131B40DF92EF92FF9281E00E941C11BC0180E0C1
S1131B5090E00E9491149B01AC0160E070EC8FE76F
S1131B6094E40E94F01320E030E040E85FE30E9438
S1131B70831320E030E44CE156E40E946F150E9488
S1131B8027156B017C0126ED34E649E759E30E94F1
S1131B906F152BEC38E444E85AE30E9484134B019C
S1131BA05C012CE63FEC48E554E3C701B6010E9412
S1131BB06F159B01AC01C701B6010E946F159B0113
S1131BC0AC01C701B6010E946F159B01AC01C501B0
S1131BD0B4010E9484139B01AC0160E070E080E8D2
S1131BE09FE30E94F01323E333E948E853E40E949F
S1131BF083130E946214862FFF90EF90DF90CF90A2
S1131C00BF90AF909F908F9008950E949B0D8093FA
S1131C10410690916300891748F061E070E080917B
S1131C203706909138060E941D0108C061E070E0FB
S1131C3080913706909138060E940E0120E044E618
S1131C4050E060E070E080913F06909140060E9471
S1131C509A058130F9F46AE080E00E943D0D6091BC
S1131C60410670E080E090E00E947C0D8091410686
S1131C70843620F489EE90E00E942A0D20E040E0B2
S1131C8050E060E070E080913F06909140060E9431
S1131C90DC0404C087E790E00E94661384EF91E0BF
S1131CA00E945D09B2CFCF93DF9300D000D01F9282
S1131CB0CDB7DEB719821A821B821C821D8210E006
S1131CC000E004C011E002C010E000E0CE0105967F
S1131CD00E947A138823D1F38D81873499F31130CC
S1131CE069F490ED980F9A3048F4E1E0F0E0EC0FDD
S1131CF0FD1FE00FF11D80830F5FE8CF1130C1F4A9
S1131D008B34B1F4E1E0F0E0EC0FFD1FE00FF11DC6
S1131D10108220E04FEF5FEFBE016F5F7F4F809135
S1131D203B0690913C060E94DC0410E000E0CECF1C
S1131D30113011F4833441F2843569F420E04FEF1B
S1131D405FEFBE016B5F7F4F8091390690913A0639
S1131D500E94DC04BBCF843409F0B8CF20E04FEFFD
S1131D605FEFBE016B5F7F4F8091390690913A0619
S1131D700E94DC04ABCFCF93DF9300D000D01F923E
S1131D80CDB7DEB719821A821B821C8220E044E69A
S1131D9050E0BE016F5F7F4F80913B0690913C06FF
S1131DA00E949A05882309F448C089818053880FCA
S1131DB0982F990F990F890F9A81890F80538093D7
S1131DC0630090914106981748F061E070E08091BB
S1131DD03706909138060E941D0108C061E070E04A
S1131DE080913706909138060E940E0120E044E667
S1131DF050E060E070E080913F06909140060E94C0
S1131E009A058130B1F440E161E0CE0101960E946F
S1131E10670D8EE890E00E94661320E040E050E0F9
S1131E2060E070E080913F06909140060E94DC04DF
S1131E3004C08FE990E00E94661320E044E650E07D
S1131E40BE016B5F7F4F8091390690913A060E94E4
S1131E509A05882309F49ACF8D81843451F5109220
S1131E60620062E070E080913706909138060E942B
S1131E700E0120E040E951E060E070E080913F060F
S1131E80909140060E949A05813009F07FCF4DE081
S1131E9062E087EB90E00E94670D20E040E050E0B4
S1131EA060E070E080913F06909140060E94DC045F
S1131EB06DCF843509F06ACF80916200813051F58D
S1131EC01092620062E070E08091370690913806CB
S1131ED00E940E0120E040E951E060E070E0809152
S1131EE03F06909140060E949A05813009F04ECF3A
S1131EF04DE062E087EB90E00E94670D20E040E057
S1131F0050E060E070E080913F06909140060E94AE
S1131F10DC043CCF81113ACF81E08093620062E01F
S1131F2070E080913706909138060E941D0120E0F0
S1131F3040E951E060E070E080913F0690914006F6
S1131F400E949A05813009F021CF4DE062E085E7D7
S1131F5090E00E94670D20E040E050E060E070E017
S1131F6080913F06909140060E94DC040FCF0E94AE
S1131F70670C0E9418130E94BB100E94C21208959D
S1131F800E94740D40E060E089EB90E00E94670DD0
S1131F900E949B0D809341066AE080E00E943D0D03
S1131FA06091410670E080E090E00E947C0D40E08A
S1131FB061E088EC90E00E94670D60E181E00E949E
S1131FC03D0D6091630070E080E090E00E947C0D24
S1131FD040E062E08DED90E00E94670D6DE082E0EC
S1131FE00E943D0D80916200813021F485E40E94BD
S1131FF0920C089584E40E94920C0895AF92BF92CB
S1132000CF92DF92EF92FF920F930E94B70F0E943C
S1132010C00F81E00E946E059093400680933F06B6
S113202040E063E083E00E94AE0490933C0680931A
S11320303B0640E061E083E00E94AE0490933A06E0
S1132040809339060E94890090933806809337065E
S1132050A12CB12CC12CD12CE12CF12C04E020E0DA
S113206030E048EC50E06BEE70E087E790E10E94CE
S1132070470703E021E436E044E650E06CEF70E00B
S113208085E09EE00E94470702E020E030E044E65D
S113209050E060E171E08BEB9EE00E94470701E0B5
S11320A020E030E044E650E067E271E083E59EE042
S11320B00E94470762E070E08091370690913806ED
S11320C00E941D010E94FF0780E090E00F91FF90A5
S11320D0EF90DF90CF90BF90AF9008950E94740D61
S11320E044E061E089E391E00E94670D0895C0E057
S11320F004E610E021E040E063E070E08091370600
S1132100909138060E949C00909336068093350681
S113211083709927039789F420E048EE53E060E048
S113212070E080913F06909140060E949A058130AC
S1132130A1F40E946E10C1E010C0C13071F420E01F
S113214040E050E060E070E080913F0690914006EE
S11321500E94DC040E94C00FC0E084EF91E00E9462
S11321605D09C6CF877097B1907E892B87B986B1F8
S1132170806486B9089527B1E4E6F0E0918130E403
S1132180939FC0011124922F9F73892B87B9828159
S1132190811104C087B18F7D87B905C0813019F4DE
S11321A087B1806287B986B1806886B980916400FE
S11321B08823C9F0813039F486B1806286B980B74A
S11321C08F7080BF10C0823071F486B1806286B98E
S11321D020B79091680030E2939FC0011124922FA0
S11321E09F70892B80BF96B180916700987F87701C
S11321F0892B86B986B1877F86B908958091660058
S1132200811108C024B185B1837090E0982F88278C
S1132210822B0895813069F424B122952695269560
S1132220237085B190E0880F991F880F991F822B26
S1132230089580E090E008950E94B210349BFECF90
S11322400E94FE1026B1206126B90895843008F05A
S1132250D2C0683008F0CFC08130D1F138F082307C
S113226009F468C0833009F496C00895411110C080
S11322702AB381E090E002C0880F991F6A95E2F7C3
S11322808095922F98239ABB9BB389238BBB089587
S1132290413081F42AB381E090E002C0880F991F95
S11322A06A95E2F7982F909592239ABB9BB3892B5A
S11322B08BBB0895423009F09EC02AB381E090E0C0
S11322C002C0880F991F6A95E2F7822B8ABB089592
S11322D0411110C027B381E090E002C0880F991F1C
S11322E06A95E2F78095922F982397BB98B3892338
S11322F088BB0895413081F427B381E090E002C0A7
S1132300880F991F6A95E2F7982F9095922397BBAF
S113231098B3892B88BB0895423009F06CC027B369
S113232081E090E002C0880F991F6A95E2F7822B42
S113233087BB0895411110C024B381E090E002C02E
S1132340880F991F6A95E2F78095922F982394BB82
S113235095B3892385BB0895413081F424B381E08A
S113236090E002C0880F991F6A95E2F7982F909524
S1132370922394BB95B3892B85BB08954230D9F53C
S113238024B381E090E002C0880F991F6A95E2F7B8
S1132390822B84BB0895411110C021B381E090E0E9
S11323A002C0880F991F6A95E2F78095922F9823AF
S11323B091BB92B3892382BB0895413081F421B348
S11323C081E090E002C0880F991F6A95E2F7982F88
S11323D09095922391BB92B3892B82BB089542308E
S11323E051F421B381E090E002C0880F991F6A95EF
S11323F0E2F7822B81BB0895843008F077C06830FF
S113240008F074C0813011F130F08230D1F18330A2
S113241009F452C00895413059F42BB381E090E09F
S113242002C0880F991F6A95E2F7822B8BBB08952F
S113243041115CC02BB381E090E002C0880F991F6A
S11324406A95E2F7809582238BBB0895413059F455
S113245028B381E090E002C0880F991F6A95E2F7E3
S1132460822B88BB0895411141C028B381E090E0DC
S113247002C0880F991F6A95E2F78095822388BB72
S11324800895413059F425B381E090E002C0880FEB
S1132490991F6A95E2F7822B85BB0895411126C0E6
S11324A025B381E090E002C0880F991F6A95E2F796
S11324B08095822385BB0895413059F422B381E08D
S11324C090E002C0880F991F6A95E2F7822B82BBC5
S11324D0089541110BC022B381E090E002C0880F3F
S11324E0991F6A95E2F78095822382BB0895843010
S11324F008F047C08130B1F028F0823019F1833000
S113250089F10895611103C01ABA1BBA08956130A4
S113251021F41ABA8FEF8BBB08956F3F91F58FEFBB
S11325208ABB0895611103C017BA18BA08956130BF
S113253021F417BA8FEF88BB08956F3F11F58FEF21
S113254087BB0895611103C014BA15BA08956130A8
S113255021F414BA8FEF85BB08956F3F91F48FEF88
S113256084BB0895611103C011BA12BA0895613091
S113257021F411BA8FEF82BB08956F3F11F48FEFEE
S113258081BB0895CF93C0E026C08C2F90E0FC015E
S1132590EE0FFF1FE80FF91FE759FF4F6181683005
S11325A069F4FC01EE0FFF1F8E0F9F1FFC01E7591A
S11325B0FF4F628180810E9477120CC0FC01EE0FF4
S11325C0FF1F8E0F9F1FFC01E759FF4F428180813F
S11325D00E942611CF5FCC23C1F2CF9108951F92A0
S11325E00F920FB60F9211242F933F934F935F9343
S11325F06F937F938F939F93AF93BF93EF93FF93C7
S1132600E0913D06F0913E06309709F00995FF915F
S1132610EF91BF91AF919F918F917F916F915F9156
S11326204F913F912F910F900FBE0F901F901895CF
S113263080916F00811104C08AB188608AB90EC08C
S1132640813021F48AB180618AB908C0823031F4C2
S11326508AB180618AB98AB188608AB9ECE6F0E00F
S1132660418180E1489FA00111249281292F30E00B
S1132670220F331F220F331F220F331F9081892F04
S113268090E0880F991F4068242B822B80BD2AB1CB
S113269090819470892F90E0880F991F880F991F5B
S11326A0922F9B7F892B8AB9858180BD848189B9CA
S11326B008955D9BFECF90FF04C02AB121602AB922
S11326C003C02AB12E7F2AB98CB908950F931F93A2
S11326D0CF938C01C0E004C090E00E945913CF5FF7
S11326E0F801EC0FF11D80818111F6CFCF911F917C
S11326F00F9108955F9B05C02CB1FC01208381E0FC
S1132700089580E008955058BB27AA270E949B1380
S11327100C94E5140E94D71438F00E94DE1420F0C3
S113272039F49F3F19F426F40C94D4140EF4E09574
S1132730E7FB0C94CE14E92F0E94F61458F3BA1751
S1132740620773078407950720F079F4A6F50C94C3
S113275018150EF4E0950B2EBA2FA02D0B01B9011C
S113276090010C01CA01A0011124FF27591B99F003
S1132770593F50F4503E68F11A16F040A22F232F0F
S1132780342F4427585FF3CF469537952795A7955F
S1132790F0405395C9F77EF41F16BA0B620B730B06
S11327A0840BBAF09150A1F0FF0FBB1F661F771F77
S11327B0881FC2F70EC0BA0F621F731F841F48F42C
S11327C0879577956795B795F7959E3F08F0B0CFB5
S11327D09395880F08F09927EE0F9795879508959C
S11327E00E9404140C94E5140E94DE1458F00E9414
S11327F0D71440F029F45F3F29F00C94CE14511102
S11328000C9419150C94D4140E94F61468F39923AB
S1132810B1F3552391F3951B550BBB27AA276217D8
S11328207307840738F09F5F5F4F220F331F441FE5
S1132830AA1FA9F335D00E2E3AF0E0E832D0915019
S11328405040E695001CCAF72BD0FE2F29D0660F06
S1132850771F881FBB1F261737074807AB07B0E849
S113286009F0BB0B802DBF01FF2793585F4F3AF04F
S11328709E3F510578F00C94CE140C9419155F3FCB
S1132880E4F3983ED4F3869577956795B795F795D5
S11328909F5FC9F7880F911D9695879597F90895BD
S11328A0E1E0660F771F881FBB1F62177307840759
S11328B0BA0720F0621B730B840BBA0BEE1F88F768
S11328C0E09508950E94FE1488F09F5798F0B92F60
S11328D09927B751B0F0E1F0660F771F881F991F51
S11328E01AF0BA95C9F714C0B13091F00E941815C6
S11328F0B1E008950C941815672F782F8827B85FD6
S113290039F0B93FCCF3869577956795B395D9F7A8
S11329103EF490958095709561957F4F8F4F9F4FB2
S11329200895E89409C097FB3EF4909580957095BE
S113293061957F4F8F4F9F4F9923A9F0F92F96E907
S1132940BB279395F695879577956795B795F1117C
S1132950F8CFFAF4BB0F11F460FF1BC06F5F7F4F19
S11329608F4F9F4F16C0882311F096E911C077232B
S113297021F09EE8872F762F05C0662371F096E834
S1132980862F70E060E02AF09A95660F771F881F03
S1132990DAF7880F9695879597F9089597F99F67C1
S11329A080E870E060E008959FEF80EC08950024D3
S11329B00A941616170618060906089500240A94A0
S11329C012161306140605060895092E0394000C26
S11329D011F4882352F0BB0F40F4BF2B11F460FFB5
S11329E004C06F5F7F4F8F4F9F4F089557FD9058DE
S11329F0440F551F59F05F3F71F04795880F97FBBF
S1132A00991F61F09F3F79F0879508951216130678
S1132A101406551FF2CF4695F1DF08C016161706A7
S1132A201806991FF1CF86957105610508940895DC
S1132A30E894BB2766277727CB0197F9089516F00A
S1132A400C94DC150C94D41468940C94CE140E9449
S1132A50FE14A8F39923C1F3AEF3DF93CF931F932E
S1132A600F93FF92C92FDD2788232AF02197660F41
S1132A70771F881FDAF720E030E040E85FEB9FE340
S1132A80883920F0803E38F021968F770E94841395
S1132A90E4E5F0E004C00E948413E1E8F0E00E9461
S1132AA0EA158B01BE01EC01FB2E6F577109759578
S1132AB0771F880B990B0E94931428E132E741E3B6
S1132AC05FE30E948215AF2D9801AE01FF900F9134
S1132AD01F91CF91DF910E949B130C94E5140E94E7
S1132AE082150C94E5140E94D71438F00E94DE1469
S1132AF020F0952311F00C94CE140C94D4141124CA
S1132B000C9419150E94F61470F3959FC1F3950F58
S1132B1050E0551F629FF001729FBB27F00DB11D5D
S1132B20639FAA27F00DB11DAA1F649F6627B00DED
S1132B30A11D661F829F2227B00DA11D621F739FD6
S1132B40B00DA11D621F839FA00D611D221F749FE4
S1132B503327A00D611D231F849F600D211D822F2B
S1132B60762F6A2F11249F5750409AF0F1F0882352
S1132B704AF0EE0FFF1FBB1F661F771F881F91507F
S1132B805040A9F79E3F510580F00C94CE140C944C
S1132B9019155F3FE4F3983ED4F3869577956795CE
S1132BA0B795F795E7959F5FC1F7FE2B880F911DA9
S1132BB09695879597F908959F3F31F0915020F4A9
S1132BC0879577956795B795880F911D9695879505
S1132BD097F90895DF93CF931F930F93FF92EF928A
S1132BE0DF927B018C01689406C0DA2EEF010E940B
S1132BF08215FE01E894A591259135914591559151
S1132C00A6F3EF010E949B13FE019701A801DA9439
S1132C1069F7DF90EF90FF900F911F91CF91DF91B3
S1132C200895FB01DC0102C001900D924150504017
S1132C30D8F70895BB274A3031F4992322F4BDE232
S1132C40909581959F4F0C942616BB27FB01552721
S1132C50AA27880F991FAA1FA41710F0A41B8395F5
S1132C605051B9F7A05DAA3308F0A95DA19300976C
S1132C7079F7B111B1931192CB010C943F16DC0199
S1132C80FC01672F71917723E1F7329704C07C919F
S1132C906D9370836291AE17BF07C8F30895F894DB
S1052CA0FFCF60
S1132CA2FFFF015000010006000208FF03000002BA
S1132CB2330049444C4500414443204661696C65F4
S1132CC26420757064617465206C63640D005468DB
S1132CD2726520757064617465206C63640D0074A0
S1132CE2687265204661696C6564207570646174FC
S1132CF265206C63640D0044004375722054656D55
S1132D02703A2020202043005468726573686F6C07
S1132D12642054656D703A202020204300416C6188
S1132D22726D2053746174653A2000456D65726753
S1132D32656E63795F6E6F726D616C00557064616C
S1132D4274652043757272656E742054656D7000EB
S1132D52757064617465205468726573686F6C641D
S1132D625F737461746500526563696576652055A5
S1132D72415254204D65737300212120414C41522C
S1092D824D202121000098
S9030000FC
